{
  "contractName": "BullsAndCows",
  "abi": [
    {
      "constant": true,
      "inputs": [
        {
          "internalType": "uint256",
          "name": "",
          "type": "uint256"
        }
      ],
      "name": "games",
      "outputs": [
        {
          "internalType": "address payable",
          "name": "host",
          "type": "address"
        },
        {
          "internalType": "address payable",
          "name": "player",
          "type": "address"
        },
        {
          "internalType": "uint256",
          "name": "value",
          "type": "uint256"
        },
        {
          "internalType": "uint256",
          "name": "guessNumber",
          "type": "uint256"
        },
        {
          "internalType": "uint256",
          "name": "guessCounter",
          "type": "uint256"
        },
        {
          "internalType": "uint256",
          "name": "digitsNumber",
          "type": "uint256"
        },
        {
          "internalType": "uint256",
          "name": "hash",
          "type": "uint256"
        },
        {
          "internalType": "enum BullsAndCows.GameStatus",
          "name": "status",
          "type": "uint8"
        },
        {
          "internalType": "uint256",
          "name": "startTime",
          "type": "uint256"
        }
      ],
      "payable": false,
      "stateMutability": "view",
      "type": "function"
    },
    {
      "constant": true,
      "inputs": [
        {
          "internalType": "uint256",
          "name": "",
          "type": "uint256"
        },
        {
          "internalType": "uint256",
          "name": "",
          "type": "uint256"
        }
      ],
      "name": "guesses",
      "outputs": [
        {
          "internalType": "uint256",
          "name": "bulls",
          "type": "uint256"
        },
        {
          "internalType": "uint256",
          "name": "cows",
          "type": "uint256"
        },
        {
          "components": [
            {
              "internalType": "uint256[2]",
              "name": "pi_a",
              "type": "uint256[2]"
            },
            {
              "internalType": "uint256[2][2]",
              "name": "pi_b",
              "type": "uint256[2][2]"
            },
            {
              "internalType": "uint256[2]",
              "name": "pi_c",
              "type": "uint256[2]"
            }
          ],
          "internalType": "struct IBullsAndCows.Proof",
          "name": "proof",
          "type": "tuple"
        },
        {
          "internalType": "enum BullsAndCows.GuessStatus",
          "name": "status",
          "type": "uint8"
        },
        {
          "internalType": "uint256",
          "name": "time",
          "type": "uint256"
        }
      ],
      "payable": false,
      "stateMutability": "view",
      "type": "function"
    },
    {
      "constant": false,
      "inputs": [
        {
          "internalType": "uint256",
          "name": "value",
          "type": "uint256"
        },
        {
          "internalType": "uint256",
          "name": "digitsNumber",
          "type": "uint256"
        },
        {
          "internalType": "uint256",
          "name": "guessNumber",
          "type": "uint256"
        },
        {
          "internalType": "uint256",
          "name": "hash",
          "type": "uint256"
        }
      ],
      "name": "newGame",
      "outputs": [
        {
          "internalType": "uint256",
          "name": "",
          "type": "uint256"
        }
      ],
      "payable": true,
      "stateMutability": "payable",
      "type": "function"
    },
    {
      "constant": false,
      "inputs": [
        {
          "internalType": "uint256",
          "name": "gameId",
          "type": "uint256"
        }
      ],
      "name": "deleteGame",
      "outputs": [],
      "payable": false,
      "stateMutability": "nonpayable",
      "type": "function"
    },
    {
      "constant": false,
      "inputs": [
        {
          "internalType": "uint256",
          "name": "gameId",
          "type": "uint256"
        }
      ],
      "name": "startGame",
      "outputs": [],
      "payable": true,
      "stateMutability": "payable",
      "type": "function"
    },
    {
      "constant": false,
      "inputs": [
        {
          "internalType": "uint256",
          "name": "gameId",
          "type": "uint256"
        },
        {
          "internalType": "uint256[]",
          "name": "digits",
          "type": "uint256[]"
        }
      ],
      "name": "newGuess",
      "outputs": [],
      "payable": false,
      "stateMutability": "nonpayable",
      "type": "function"
    },
    {
      "constant": false,
      "inputs": [
        {
          "internalType": "uint256",
          "name": "gameId",
          "type": "uint256"
        },
        {
          "internalType": "uint256",
          "name": "guessId",
          "type": "uint256"
        },
        {
          "internalType": "uint256",
          "name": "bulls",
          "type": "uint256"
        },
        {
          "internalType": "uint256",
          "name": "cows",
          "type": "uint256"
        },
        {
          "components": [
            {
              "internalType": "uint256[2]",
              "name": "pi_a",
              "type": "uint256[2]"
            },
            {
              "internalType": "uint256[2][2]",
              "name": "pi_b",
              "type": "uint256[2][2]"
            },
            {
              "internalType": "uint256[2]",
              "name": "pi_c",
              "type": "uint256[2]"
            }
          ],
          "internalType": "struct IBullsAndCows.Proof",
          "name": "proof",
          "type": "tuple"
        }
      ],
      "name": "guessResult",
      "outputs": [],
      "payable": false,
      "stateMutability": "nonpayable",
      "type": "function"
    },
    {
      "constant": false,
      "inputs": [
        {
          "internalType": "uint256",
          "name": "gameId",
          "type": "uint256"
        },
        {
          "internalType": "uint256",
          "name": "guessId",
          "type": "uint256"
        }
      ],
      "name": "chalengeResult",
      "outputs": [],
      "payable": false,
      "stateMutability": "nonpayable",
      "type": "function"
    },
    {
      "constant": false,
      "inputs": [
        {
          "internalType": "uint256",
          "name": "gameId",
          "type": "uint256"
        }
      ],
      "name": "forceStopGame",
      "outputs": [
        {
          "internalType": "enum IBullsAndCows.StopStatus",
          "name": "",
          "type": "uint8"
        }
      ],
      "payable": false,
      "stateMutability": "nonpayable",
      "type": "function"
    },
    {
      "constant": false,
      "inputs": [
        {
          "internalType": "uint256",
          "name": "gameId",
          "type": "uint256"
        }
      ],
      "name": "finalizeGame",
      "outputs": [],
      "payable": false,
      "stateMutability": "nonpayable",
      "type": "function"
    },
    {
      "constant": true,
      "inputs": [],
      "name": "getGamesCount",
      "outputs": [
        {
          "internalType": "uint256",
          "name": "",
          "type": "uint256"
        }
      ],
      "payable": false,
      "stateMutability": "view",
      "type": "function"
    }
  ],
  "bytecode": "0x6080604052610e1060025534801561001657600080fd5b50613a5e806100266000396000f3fe60806040526004361061009c5760003560e01c80634bb86180116100645780634bb8618014610163578063771197ee14610190578063a813895b146101b0578063c08989f2146101c3578063e5ed1d59146101f4578063ea5cf7e8146102075761009c565b80630920a238146100a1578063117a5b90146100c357806317b7a47614610101578063248a55a11461012357806341f7347314610143575b600080fd5b3480156100ad57600080fd5b506100c16100bc3660046131e2565b610227565b005b3480156100cf57600080fd5b506100e36100de36600461316e565b610657565b6040516100f899989796959493929190613754565b60405180910390f35b34801561010d57600080fd5b506101166106c2565b6040516100f891906138f8565b34801561012f57600080fd5b506100c161013e36600461316e565b6106c9565b34801561014f57600080fd5b506100c161015e36600461327d565b610848565b34801561016f57600080fd5b5061018361017e36600461316e565b610aa1565b6040516100f891906137da565b34801561019c57600080fd5b506100c16101ab36600461316e565b610f99565b6101166101be36600461321c565b611454565b3480156101cf57600080fd5b506101e36101de3660046131e2565b611699565b6040516100f8959493929190613906565b6100c161020236600461316e565b6117c3565b34801561021357600080fd5b506100c161022236600461318c565b611997565b60005482106102515760405162461bcd60e51b815260040161024890613848565b60405180910390fd5b610259612c75565b6000838154811061026657fe5b60009182526020918290206040805161012081018252600990930290910180546001600160a01b03908116845260018201541693830193909352600280840154918301919091526003830154606083015260048301546080830152600583015460a0830152600683015460c0830152600783015491929160e084019160ff909116908111156102f157fe5b60028111156102fc57fe5b815260089190910154602090910152905060018160e00151600281111561031f57fe5b1461033c5760405162461bcd60e51b8152600401610248906137e8565b60008381526001602052604090205482106103695760405162461bcd60e51b815260040161024890613828565b600083815260016020526040812080548490811061038357fe5b60009182526020909120600d9091020190506001600b82015460ff1660018111156103aa57fe5b146103c75760405162461bcd60e51b8152600401610248906138a8565b6103cf612cde565b60405180610160016040528083600101548152602001836002015481526020018460c0015181526020018360000160008154811061040957fe5b906000526020600020015481526020018360000160018154811061042957fe5b906000526020600020015481526020018360000160028154811061044957fe5b906000526020600020015481526020018360000160038154811061046957fe5b906000526020600020015481526020018360000160048154811061048957fe5b90600052602060002001548152602001836000016005815481106104a957fe5b90600052602060002001548152602001836000016006815481106104c957fe5b90600052602060002001548152602001836000016007815481106104e957fe5b6000918252602082200154909152604080518082019182905292935090916105c291600386019060029082845b81548152602001906001019080831161051657505060408051808201909152925050506005860160026000835b8282101561058957604080518082019182905290600284810287019182845b81548152602001906001019080831161056257505050505081526020019060010190610543565b50506040805180820191829052925060098901915060029082845b8154815260200190600101908083116105a457505050505085611d2e565b905060018115151461064f576002600087815481106105dd57fe5b60009182526020909120600760099092020101805460ff1916600183600281111561060457fe5b021790555083602001516001600160a01b03166108fc85604001516002029081150290604051600060405180830381858888f1935050505015801561064d573d6000803e3d6000fd5b505b505050505050565b6000818154811061066457fe5b60009182526020909120600990910201805460018201546002830154600384015460048501546005860154600687015460078801546008909801546001600160a01b0397881699509690951696939592949193909260ff9091169089565b6000545b90565b60005481106106ea5760405162461bcd60e51b815260040161024890613848565b6106f2612c75565b600082815481106106ff57fe5b60009182526020918290206040805161012081018252600990930290910180546001600160a01b03908116845260018201541693830193909352600280840154918301919091526003830154606083015260048301546080830152600583015460a0830152600683015460c0830152600783015491929160e084019160ff9091169081111561078a57fe5b600281111561079557fe5b8152602001600882015481525050905080600001516001600160a01b0316336001600160a01b0316146107da5760405162461bcd60e51b815260040161024890613888565b60008160e0015160028111156107ec57fe5b146108095760405162461bcd60e51b8152600401610248906137e8565b60026000838154811061081857fe5b60009182526020909120600760099092020101805460ff1916600183600281111561083f57fe5b02179055505050565b60005485106108695760405162461bcd60e51b815260040161024890613848565b610871612c75565b6000868154811061087e57fe5b60009182526020918290206040805161012081018252600990930290910180546001600160a01b03908116845260018201541693830193909352600280840154918301919091526003830154606083015260048301546080830152600583015460a0830152600683015460c0830152600783015491929160e084019160ff9091169081111561090957fe5b600281111561091457fe5b81526008919091015460209182015260008881526001909152604090205490915085106109535760405162461bcd60e51b815260040161024890613828565b600086815260016020526040812080548790811061096d57fe5b90600052602060002090600d0201905081600001516001600160a01b0316336001600160a01b0316146109b25760405162461bcd60e51b8152600401610248906138e8565b60018260e0015160028111156109c457fe5b146109e15760405162461bcd60e51b8152600401610248906137e8565b6000600b82015460ff1660018111156109f657fe5b14610a135760405162461bcd60e51b8152600401610248906138a8565b610a1b612cfd565b610a2a3685900385018561314f565b805190915081906003840190610a439082906002612d2f565b506020820151610a599060028084019190612d6d565b506040820151610a6f9060068301906002612d2f565b5050505060018181019590955560028101939093555050600b8101805460ff191690921790915542600c909101555050565b600080548210610ac35760405162461bcd60e51b815260040161024890613848565b610acb612c75565b60008381548110610ad857fe5b60009182526020918290206040805161012081018252600990930290910180546001600160a01b03908116845260018201541693830193909352600280840154918301919091526003830154606083015260048301546080830152600583015460a0830152600683015460c0830152600783015491929160e084019160ff90911690811115610b6357fe5b6002811115610b6e57fe5b815260089190910154602090910152905060018160e001516002811115610b9157fe5b14610bae5760405162461bcd60e51b8152600401610248906137e8565b608081015115610ef357610bc0612db4565b600084815260016020526040902060808301518154600019909101908110610be457fe5b90600052602060002090600d02016040518060c001604052908160008201805480602002602001604051908101604052809291908181526020018280548015610c4c57602002820191906000526020600020905b815481526020019060010190808311610c38575b505050918352505060018201546020820152600280830154604080840191909152805160a0810191829052606093840193909260038601928492830191849182845b815481526020019060010190808311610c8e575050505050815260200160028201600280602002604051908101604052809291906000905b82821015610d0c57604080518082019182905290600284810287019182845b815481526020019060010190808311610ce557505050505081526020019060010190610cc6565b50505090825250604080518082019182905260209092019190600684019060029082845b815481526020019060010190808311610d3057505050919092525050508152600b82015460209091019060ff166001811115610d6857fe5b6001811115610d7357fe5b8152602001600c8201548152505090506002548160a0015101421115610eed57600081608001516001811115610da557fe5b1415610e3657600260008581548110610dba57fe5b60009182526020909120600760099092020101805460ff19166001836002811115610de157fe5b021790555081602001516001600160a01b03166108fc83604001516002029081150290604051600060405180830381858888f19350505050158015610e2a573d6000803e3d6000fd5b50600292505050610f94565b600181608001516001811115610e4857fe5b148015610e5d57508160600151826080015114155b15610eed57600260008581548110610e7157fe5b60009182526020909120600760099092020101805460ff19166001836002811115610e9857fe5b021790555081600001516001600160a01b03166108fc83604001516002029081150290604051600060405180830381858888f19350505050158015610ee1573d6000803e3d6000fd5b50600192505050610f94565b50610f8e565b60025481610100015101421115610f8e57600260008481548110610f1357fe5b60009182526020909120600760099092020101805460ff19166001836002811115610f3a57fe5b021790555080600001516001600160a01b03166108fc82604001516002029081150290604051600060405180830381858888f19350505050158015610f83573d6000803e3d6000fd5b506001915050610f94565b60009150505b919050565b6000548110610fba5760405162461bcd60e51b815260040161024890613848565b610fc2612c75565b60008281548110610fcf57fe5b60009182526020918290206040805161012081018252600990930290910180546001600160a01b03908116845260018201541693830193909352600280840154918301919091526003830154606083015260048301546080830152600583015460a0830152600683015460c0830152600783015491929160e084019160ff9091169081111561105a57fe5b600281111561106557fe5b815260089190910154602090910152905060018160e00151600281111561108857fe5b146110a55760405162461bcd60e51b8152600401610248906137e8565b60008160800151116110c95760405162461bcd60e51b815260040161024890613868565b6110d1612db4565b6000838152600160205260409020608083015181546000199091019081106110f557fe5b90600052602060002090600d02016040518060c00160405290816000820180548060200260200160405190810160405280929190818152602001828054801561115d57602002820191906000526020600020905b815481526020019060010190808311611149575b505050918352505060018201546020820152600280830154604080840191909152805160a0810191829052606093840193909260038601928492830191849182845b81548152602001906001019080831161119f575050505050815260200160028201600280602002604051908101604052809291906000905b8282101561121d57604080518082019182905290600284810287019182845b8154815260200190600101908083116111f6575050505050815260200190600101906111d7565b50505090825250604080518082019182905260209092019190600684019060029082845b81548152602001906001019080831161124157505050919092525050508152600b82015460209091019060ff16600181111561127957fe5b600181111561128457fe5b8152600c919091015460209091015290506001816080015160018111156112a757fe5b146112c45760405162461bcd60e51b8152600401610248906138a8565b81606001518260800151101561136a578160a0015181602001511415611365576002600084815481106112f357fe5b60009182526020909120600760099092020101805460ff1916600183600281111561131a57fe5b021790555081602001516001600160a01b03166108fc83604001516002029081150290604051600060405180830381858888f19350505050158015611363573d6000803e3d6000fd5b505b61144f565b81606001518260800151141561144f5760026000848154811061138957fe5b60009182526020909120600760099092020101805460ff191660018360028111156113b057fe5b02179055508160a00151816020015114156114095781602001516001600160a01b03166108fc83604001516002029081150290604051600060405180830381858888f19350505050158015611363573d6000803e3d6000fd5b81600001516001600160a01b03166108fc83604001516002029081150290604051600060405180830381858888f1935050505015801561144d573d6000803e3d6000fd5b505b505050565b60008434146114755760405162461bcd60e51b815260040161024890613838565b61147d612c75565b604051806101200160405280336001600160a01b0316815260200160006001600160a01b0316815260200187815260200185815260200160008152602001868152602001848152602001600060028111156114d457fe5b81526000602091820181905280546001818101808455928052845160099092027f290decd9548b62a8d60345a988386fc84ba6bc95484008f6362f93160ef3e563810180546001600160a01b039485166001600160a01b0319918216178255958701517f290decd9548b62a8d60345a988386fc84ba6bc95484008f6362f93160ef3e564830180549190951696169590951790925560408501517f290decd9548b62a8d60345a988386fc84ba6bc95484008f6362f93160ef3e56583015560608501517f290decd9548b62a8d60345a988386fc84ba6bc95484008f6362f93160ef3e56683015560808501517f290decd9548b62a8d60345a988386fc84ba6bc95484008f6362f93160ef3e56783015560a08501517f290decd9548b62a8d60345a988386fc84ba6bc95484008f6362f93160ef3e56883015560c08501517f290decd9548b62a8d60345a988386fc84ba6bc95484008f6362f93160ef3e56983015560e08501517f290decd9548b62a8d60345a988386fc84ba6bc95484008f6362f93160ef3e56a909201805495965092948694939160ff199091169083600281111561167d57fe5b0217905550610100820151816008015550505050949350505050565b600160205281600052604060002081815481106116b257fe5b60009182526020909120600d9091020160018101546002808301546040805160a0810191829052939650909450600384019183916060830191849182845b8154815260200190600101908083116116f0575050505050815260200160028201600280602002604051908101604052809291906000905b8282101561176e57604080518082019182905290600284810287019182845b81548152602001906001019080831161174757505050505081526020019060010190611728565b50505090825250604080518082019182905260209092019190600684019060029082845b8154815260200190600101908083116117925750505091909252505050600b820154600c90920154909160ff169085565b60005481106117e45760405162461bcd60e51b815260040161024890613848565b6117ec612c75565b600082815481106117f957fe5b60009182526020918290206040805161012081018252600990930290910180546001600160a01b03908116845260018201541693830193909352600280840154918301919091526003830154606083015260048301546080830152600583015460a0830152600683015460c0830152600783015491929160e084019160ff9091169081111561188457fe5b600281111561188f57fe5b815260089190910154602090910152905060008160e0015160028111156118b257fe5b146118cf5760405162461bcd60e51b8152600401610248906137e8565b806040015134146118f25760405162461bcd60e51b815260040161024890613838565b336000838154811061190057fe5b906000526020600020906009020160010160006101000a8154816001600160a01b0302191690836001600160a01b0316021790555060016000838154811061194457fe5b60009182526020909120600760099092020101805460ff1916600183600281111561196b57fe5b0217905550426000838154811061197e57fe5b9060005260206000209060090201600801819055505050565b60005483106119b85760405162461bcd60e51b815260040161024890613848565b6119c0612c75565b600084815481106119cd57fe5b60009182526020918290206040805161012081018252600990930290910180546001600160a01b03908116845260018201541693830193909352600280840154918301919091526003830154606083015260048301546080830152600583015460a0830152600683015460c0830152600783015491929160e084019160ff90911690811115611a5857fe5b6002811115611a6357fe5b815260089190910154602090910152905060018160e001516002811115611a8657fe5b14611aa35760405162461bcd60e51b8152600401610248906137e8565b80602001516001600160a01b0316336001600160a01b031614611ad85760405162461bcd60e51b815260040161024890613878565b8060600151816080015110611aff5760405162461bcd60e51b815260040161024890613878565b60a08101518214611b225760405162461bcd60e51b815260040161024890613898565b60005b82811015611b6857610100848483818110611b3c57fe5b9050602002013510611b605760405162461bcd60e51b8152600401610248906137f8565b600101611b25565b50611b71612db4565b6040518060c00160405280858580806020026020016040519081016040528093929190818152602001838360200280828437600092018290525093855250505060208083018290526040808401839052805160a08082018352606080830186815260808085018890529084528451808201865280860188815281840189905281528551808701875288815280880189905281880152848701528451808601865287815280870188905284860152908701929092529085018490524294019390935288825260018082529282208054938401808255908352918190208451805195965092948694600d0290910192611c6c928492910190612de8565b506020820151816001015560408201518160020155606082015181600301600082015181600001906002611ca1929190612d2f565b506020820151611cb79060028084019190612d6d565b506040820151611ccd9060068301906002612d2f565b5050506080820151600b8201805460ff191660018381811115611cec57fe5b021790555060a082015181600c0155505050600160008681548110611d0d57fe5b60009182526020909120600460099092020101805490910190555050505050565b6000611d38612e22565b6040805180820182528751815260208089015181830152908352815160808101835287515181840190815288518301516060808401919091529082528351808501855289840180515182525184015181850152828401528483019190915282518084018452875181528783015181840152848401528251600b80825261018082019094529092909182016101608038833901905050905060005b600b811015611e0b578481600b8110611de757fe5b6020020151828281518110611df857fe5b6020908102919091010152600101611dd2565b50611e168183611e34565b611e2557600192505050611e2c565b6000925050505b949350505050565b60007f30644e72e131a029b85045b68181585d2833e84879b9709143e1f593f0000001611e5f612e4f565b611e67611fad565b9050806080015151855160010114611e915760405162461bcd60e51b815260040161024890613808565b611e99612e96565b50604080518082019091526000808252602082018190525b8651811015611f365783878281518110611ec757fe5b602002602001015110611eec5760405162461bcd60e51b815260040161024890613858565b611f2c82611f2785608001518460010181518110611f0657fe5b60200260200101518a8581518110611f1a57fe5b602002602001015161279b565b612806565b9150600101611eb1565b50611f59818360800151600081518110611f4c57fe5b6020026020010151612806565b9050611f8f611f6b866000015161286d565b8660200151846000015185602001518587604001518b6040015189606001516128f7565b611f9f5760019350505050611fa7565b600093505050505b92915050565b611fb5612e4f565b6040805180820182527f15d8a47522582a07bf97c4a6da62bae06809d3f24f14dcccee00e37a5c68d6af81527f2de3d12485d2c1206c6adac0a4c0639eaa6b3d41f5d43204afd1e9d6492de3626020808301919091529083528151608080820184527f0f668bce9ffc5ed1f429003d1fbc4f9999dd1e8392545340980ca4c00565a7548285019081527f100fa54a8e37acd1526eef269c709d4e3fdf8266d22abcd28e6c320cd2e1d2ac606080850191909152908352845180860186527f2f0e1576183c7f436c8ea8b1b80b7e870aa0b99ae958dbccdb5fa1a813081fad81527f0683e8be71bc125573134ab058b2ad1e56f778fd951c49cf7b448d6cabec29b7818601528385015285840192909252835180820185527f0d389c7198e986e008676def6ede810b50105524d4b87d2c0a2a5ebcb867d8098186019081527f21ab3da7d8ba6287d6cdd6ce937de80d57c2c4720ebee723050913d9374a9455828501528152845180860186527f1d132de740667dd768de2b0e6c4d0c8c04bbe387a4f09824914359a321fffaff81527f1b1c4af48835ba1d48c75e59c629ba85e0f49309f7de50f7e2a65ec7182b6343818601528185015285850152835190810184527f22dc23fd936549ce7f5bf5501828314bafb26076a122ddeb952668ac4a70f8f18185019081527f06a059fa064f434e175b952e06f559c523279078d48fa17032ded5018efb87d1828401528152835180850185527f24cbd316cb30086cb87f3504c35781f6095b004aeab777a47b72bbb5da910c1181527f28d6b766b3f64494470cf0bcd5ab65cfaa6efda8af711af40b1c6b6187c3aa838185015281840152908401528151600c8082526101a08201909352919082015b612239612e96565b81526020019060019003908161223157505060808201908152604080518082019091527f03d767ca7bf2b10498d1676f22c5864ad2a0ba06b88a38a97c88e40fb51afe2d81527f03bf32f0c469955057c1ea91af61a1380cd175476bdfaf161098e89585dc8f956020820152905180516000906122b257fe5b602002602001018190525060405180604001604052807f21273c75b6f2c5d06ecd9490ad8cf53daf411e5efedafb40e65bcaacdc9ec03781526020017f297dd4352ee2be5d348ffc51a1e0a0ff45d124eff30d51c58608c1a1fe24050e815250816080015160018151811061232357fe5b602002602001018190525060405180604001604052807f1160acd05e28718669504131964db19e13e06cb590c6a027f7332c6a4647a72381526020017f2bb4eaebb04cc73af18e71fce046cd6306cf2b4a798e8b8809d2f2f6aa750c17815250816080015160028151811061239457fe5b602002602001018190525060405180604001604052807f0d2158270a23132f4486ee110f5cc28d6e29e13b4f195828c86f9f0d26a004f781526020017f2c313f3f70e650731a2b2cc976eb2fcd898ceaa7d26bf485e7154231966eac02815250816080015160038151811061240557fe5b602002602001018190525060405180604001604052807f0fbcab0f7a03d494934774578dee7d9cfcee2d65dcb3dad7b2a94c713243110981526020017f1a8fe2465f99ea13731b9d5e569a33cf024fa87a1c0bb3041c5545990425c2cf815250816080015160048151811061247657fe5b602002602001018190525060405180604001604052807f289dd871333cb205934d1e0fe91ca54d8e0ca9e93b8bdaa50f2954984f9357ff81526020017f0eb5bb5c70fb45214dcf6691ed6074864034fa50a5df8230edd89ffb7429541d81525081608001516005815181106124e757fe5b602002602001018190525060405180604001604052807f19ec728a4d720b6b25d20a5b685275e04abfd4f7c6c1d44421d5c5f24b8ef2a081526020017f28e20ff8bc2fd49155572d071cc5761bc7f0c520cb92cf90cc848905994a55cb815250816080015160068151811061255857fe5b602002602001018190525060405180604001604052807f1e2191e67bb4f28817bbfd99d81e126510a957dae7af273af9b21fa944c07c3d81526020017f27ccbfb864aa211b7e76bb23049d479a9a32f9b1f38347ff91607deeec768be281525081608001516007815181106125c957fe5b602002602001018190525060405180604001604052807f13c1e74d5ad5e88bfc7a791e8778f78bfd015c4b78e2d08566a5632666209eea81526020017f0b35f613ff22e774bf963d2b4df4cdf5e160a0d22ce892e3f4d3bf65d1d0667a815250816080015160088151811061263a57fe5b602002602001018190525060405180604001604052807f1cd625fd3f248b50e53fcf43e52983efb02076ae60610ec9781c184df3fb6ec381526020017f1a6063449a8ef10d09d86019e0359f949e02bfd4b9037e965e799b4a14a35e0081525081608001516009815181106126ab57fe5b602002602001018190525060405180604001604052807f097861f5fca46e13785998eafd796866824b17dcf57d393ff1fafaed58a8410f81526020017f2872cb97c232c2d3bea5681a5272675cb3d00616d8fd45e6478fc8595fabb9d58152508160800151600a8151811061271c57fe5b602002602001018190525060405180604001604052807f0eb3a8de957f62fe6ea7dd93764162578984f848a7519c359e92d4edf247d4a581526020017f2aff012eb67aad9dde0da8dc9e8dde0c001be159fbc0c5351e61c0b0bd2249688152508160800151600b8151811061278d57fe5b602002602001018190525090565b6127a3612e96565b6127ab612eb0565b835181526020808501519082015260408101839052600060608360808460076107d05a03fa90508080156127de576127e0565bfe5b50806127fe5760405162461bcd60e51b815260040161024890613818565b505092915050565b61280e612e96565b612816612ece565b8351815260208085015181830152835160408301528301516060808301919091526000908360c08460066107d05a03fa90508080156127de5750806127fe5760405162461bcd60e51b8152600401610248906138c8565b612875612e96565b81517f30644e72e131a029b85045b68181585d97816a916871ca8d3c208c16d87cfd47901580156128a857506020830151155b156128c85750506040805180820190915260008082526020820152610f94565b604051806040016040528084600001518152602001828560200151816128ea57fe5b0690920390915292915050565b60408051600480825260a0820190925260009160609190816020015b61291b612e96565b81526020019060019003908161291357505060408051600480825260a0820190925291925060609190602082015b612951612eec565b8152602001906001900390816129495790505090508a8260008151811061297457fe5b6020026020010181905250888260018151811061298d57fe5b602002602001018190525086826002815181106129a657fe5b602002602001018190525084826003815181106129bf57fe5b602002602001018190525089816000815181106129d857fe5b602002602001018190525087816001815181106129f157fe5b60200260200101819052508581600281518110612a0a57fe5b60200260200101819052508381600381518110612a2357fe5b6020026020010181905250612a388282612a47565b9b9a5050505050505050505050565b60008151835114612a6a5760405162461bcd60e51b8152600401610248906138b8565b8251604080516006830280825260c084028201602001909252606090828015612a9d578160200160208202803883390190505b50905060005b83811015612c2257868181518110612ab757fe5b602002602001015160000151828260060260000181518110612ad557fe5b602002602001018181525050868181518110612aed57fe5b602002602001015160200151828260060260010181518110612b0b57fe5b602002602001018181525050858181518110612b2357fe5b602090810291909101015151518251839060026006850201908110612b4457fe5b602002602001018181525050858181518110612b5c57fe5b60209081029190910101515160016020020151828260060260030181518110612b8157fe5b602002602001018181525050858181518110612b9957fe5b602002602001015160200151600060028110612bb157fe5b6020020151828260060260040181518110612bc857fe5b602002602001018181525050858181518110612be057fe5b602002602001015160200151600160028110612bf857fe5b6020020151828260060260050181518110612c0f57fe5b6020908102919091010152600101612aa3565b50612c2b612eff565b6000602082602086026020860160086107d05a03fa90508080156127de575080612c675760405162461bcd60e51b8152600401610248906138d8565b505115159695505050505050565b60405180610120016040528060006001600160a01b0316815260200160006001600160a01b03168152602001600081526020016000815260200160008152602001600081526020016000815260200160006002811115612cd157fe5b8152602001600081525090565b604051806101600160405280600b906020820280388339509192915050565b6040518060600160405280612d10612f1d565b8152602001612d1d612f3b565b8152602001612d2a612f1d565b905290565b8260028101928215612d5d579160200282015b82811115612d5d578251825591602001919060010190612d42565b50612d69929150612f68565b5090565b600483019183908215612da8579160200282015b82811115612da8578251612d989083906002612d2f565b5091602001919060020190612d81565b50612d69929150612f82565b6040518060c00160405280606081526020016000815260200160008152602001612ddc612cfd565b81526020016000612cd1565b828054828255906000526020600020908101928215612d5d5791602002820182811115612d5d578251825591602001919060010190612d42565b6040518060600160405280612e35612e96565b8152602001612e42612eec565b8152602001612d2a612e96565b6040518060a00160405280612e62612e96565b8152602001612e6f612eec565b8152602001612e7c612eec565b8152602001612e89612eec565b8152602001606081525090565b604051806040016040528060008152602001600081525090565b60405180606001604052806003906020820280388339509192915050565b60405180608001604052806004906020820280388339509192915050565b6040518060400160405280612d1d612f1d565b60405180602001604052806001906020820280388339509192915050565b60405180604001604052806002906020820280388339509192915050565b60405180604001604052806002905b612f52612f1d565b815260200190600190039081612f4a5790505090565b6106c691905b80821115612d695760008155600101612f6e565b6106c691905b80821115612d69576000612f9c8282612fa5565b50600201612f88565b506000815560010160009055565b600082601f830112612fc457600080fd5b6002612fd7612fd28261397c565b613955565b91508183856040840282011115612fed57600080fd5b60005b8381101561301b57816130038882613025565b84525060209092019160409190910190600101612ff0565b5050505092915050565b600082601f83011261303657600080fd5b6002613044612fd28261397c565b9150818385602084028201111561305a57600080fd5b60005b8381101561301b57816130708882613144565b845250602092830192919091019060010161305d565b60008083601f84011261309857600080fd5b50813567ffffffffffffffff8111156130b057600080fd5b6020830191508360208202830111156130c857600080fd5b9250929050565b600061010082840312156130e257600080fd5b50919050565b600061010082840312156130fb57600080fd5b6131056060613955565b905060006131138484613025565b825250604061312484848301612fb3565b60208301525060c061313884828501613025565b60408301525092915050565b8035611fa781613a07565b6000610100828403121561316257600080fd5b6000611e2c84846130e8565b60006020828403121561318057600080fd5b6000611e2c8484613144565b6000806000604084860312156131a157600080fd5b60006131ad8686613144565b935050602084013567ffffffffffffffff8111156131ca57600080fd5b6131d686828701613086565b92509250509250925092565b600080604083850312156131f557600080fd5b60006132018585613144565b925050602061321285828601613144565b9150509250929050565b6000806000806080858703121561323257600080fd5b600061323e8787613144565b945050602061324f87828801613144565b935050604061326087828801613144565b925050606061327187828801613144565b91505092959194509250565b6000806000806000610180868803121561329657600080fd5b60006132a28888613144565b95505060206132b388828901613144565b94505060406132c488828901613144565b93505060606132d588828901613144565b92505060806132e6888289016130cf565b9150509295509295909350565b60006132ff8383613376565b505060400190565b6000613313838361374b565b505060200190565b613324816139af565b82525050565b6133338161399a565b61333d8184610f94565b9250613348826106c6565b8060005b8381101561064f57815161336087826132f3565b965061336b836139a0565b92505060010161334c565b61337f8161399a565b6133898184610f94565b9250613394826106c6565b8060005b8381101561064f5781516133ac8782613307565b96506133b7836139a0565b925050600101613398565b613324816139da565b613324816139e5565b60006133e16015836139a6565b74494e434f52524543542047414d452053544154555360581b815260200192915050565b6000613412601c836139a6565b7f494e434f52524543542044494749542056414c554520283e3235352900000000815260200192915050565b600061344b6012836139a6565b711d995c9a599a595c8b5898590b5a5b9c1d5d60721b815260200192915050565b60006134796012836139a6565b711c185a5c9a5b99cb5b5d5b0b59985a5b195960721b815260200192915050565b60006134a76012836139a6565b71125390d3d4949150d50811d55154d4c8125160721b815260200192915050565b60006134d5600f836139a6565b6e494e434f52524543542056414c554560881b815260200192915050565b60006135006011836139a6565b70125390d3d4949150d50811d05351481251607a1b815260200192915050565b600061352d601f836139a6565b7f76657269666965722d6774652d736e61726b2d7363616c61722d6669656c6400815260200192915050565b60006135666017836139a6565b7f494e434f525245435420475545535320434f554e544552000000000000000000815260200192915050565b600061359f6010836139a6565b6f24a721a7a92922a1aa10282620aca2a960811b815260200192915050565b60006135cb6013836139a6565b72125390d3d4949150d50811d05351481213d4d5606a1b815260200192915050565b60006135fa6017836139a6565b7f494e434f525245435420444947495453204e554d424552000000000000000000815260200192915050565b60006136336016836139a6565b75494e434f52524543542047554553532053544154555360501b815260200192915050565b60006136656016836139a6565b751c185a5c9a5b99cb5b195b99dd1a1ccb59985a5b195960521b815260200192915050565b60006136976012836139a6565b711c185a5c9a5b99cb5859190b59985a5b195960721b815260200192915050565b60006136c56015836139a6565b741c185a5c9a5b99cb5bdc18dbd9194b59985a5b1959605a1b815260200192915050565b60006136f6600e836139a6565b6d125390d3d4949150d5081213d4d560921b815260200192915050565b80516101008301906137258482613376565b506020820151613738604085018261332a565b50604082015161144d60c0850182613376565b613324816106c6565b6101208101613763828c61331b565b613770602083018b61331b565b61377d604083018a61374b565b61378a606083018961374b565b613797608083018861374b565b6137a460a083018761374b565b6137b160c083018661374b565b6137be60e08301856133c2565b6137cc61010083018461374b565b9a9950505050505050505050565b60208101611fa782846133c2565b60208082528101611fa7816133d4565b60208082528101611fa781613405565b60208082528101611fa78161343e565b60208082528101611fa78161346c565b60208082528101611fa78161349a565b60208082528101611fa7816134c8565b60208082528101611fa7816134f3565b60208082528101611fa781613520565b60208082528101611fa781613559565b60208082528101611fa781613592565b60208082528101611fa7816135be565b60208082528101611fa7816135ed565b60208082528101611fa781613626565b60208082528101611fa781613658565b60208082528101611fa78161368a565b60208082528101611fa7816136b8565b60208082528101611fa7816136e9565b60208101611fa7828461374b565b6101808101613915828861374b565b613922602083018761374b565b61392f6040830186613713565b61393d6101408301856133cb565b61394b61016083018461374b565b9695505050505050565b60405181810167ffffffffffffffff8111828210171561397457600080fd5b604052919050565b600067ffffffffffffffff82111561399357600080fd5b5060200290565b50600290565b60200190565b90815260200190565b6000611fa7826139ce565b80610f94816139f0565b80610f94816139fd565b6001600160a01b031690565b6000611fa7826139ba565b6000611fa7826139c4565b600381106139fa57fe5b50565b600281106139fa57fe5b613a10816106c6565b81146139fa57600080fdfea365627a7a72315820cea544610cbc8e72fb2ead6710c94e80361e20c87eb460707f86fecb41f7529c6c6578706572696d656e74616cf564736f6c634300050b0040",
  "source": "pragma solidity 0.5.11;\npragma experimental ABIEncoderV2;\n\nimport \"./verifier.sol\";\n\n\ncontract IBullsAndCows {\n    struct Proof {\n        uint[2]  pi_a;\n        uint[2][2]  pi_b;\n        uint[2]  pi_c;\n    }\n\n    enum StopStatus {\n        GAMECONTINUES,\n        HOSTWON,\n        PLAYERWON\n    }\n\n    function newGame(uint value, uint digitsNumber, uint guessNumber, uint hash) external payable returns(uint);\n    function deleteGame(uint gameId) external;\n    function startGame(uint gameId) external payable;\n    function newGuess(uint gameId, uint[] calldata digits) external;\n    function guessResult(uint gameId, uint guessId, uint bulls, uint cows, Proof calldata proof) external;\n    function chalengeResult(uint gameId, uint guessId) external;\n    function forceStopGame(uint gameId) external returns(StopStatus);\n    function finalizeGame(uint gameId) external;\n    function getGamesCount() external view returns(uint);\n}\n\ncontract BullsAndCows is IBullsAndCows {\n\n    enum GameStatus {\n        CREATED,\n        STARTED,\n        FINISHED\n    }\n\n    struct Game {\n        address payable host;\n        address payable player;\n        uint value;\n        uint guessNumber;\n        uint guessCounter;\n        uint digitsNumber;\n        uint hash;\n        GameStatus status;\n        uint startTime;\n    }\n\n    enum GuessStatus {\n        CREATED,\n        RESPONDED\n    }\n\n    struct Guess {\n        uint[] digits;\n        uint bulls;\n        uint cows;\n        Proof proof;\n        GuessStatus status;\n        uint time;\n    }\n\n    Game[] public games;\n    mapping(uint => Guess[]) public guesses;\n\n    uint chalengePeriod = 1 hours;\n\n\n    function newGame(\n        uint value,\n        uint digitsNumber,\n        uint guessNumber,\n        uint hash\n    ) external payable returns (uint) {\n        require(msg.value == value, \"INCORRECT VALUE\");\n        // TODO check digitsNumber consistency [4,5,6]\n        // TODO real word proof and chalenge function\n        Game memory game = Game(\n            msg.sender,\n            address(0),\n            value,\n            guessNumber,\n            0,\n            digitsNumber,\n            hash,\n            GameStatus.CREATED,\n            0\n        );\n        games.push(game);\n    }\n\n    function deleteGame(uint gameId) external {\n        require(gameId < games.length, \"INCORRECT GAME ID\");\n        Game memory game = games[gameId];\n        require(msg.sender == game.host, \"INCORRECT GAME HOST\");\n        require(game.status == GameStatus.CREATED, \"INCORRECT GAME STATUS\");\n        games[gameId].status = GameStatus.FINISHED;\n    }\n\n    function startGame(uint gameId) external payable {\n        require(gameId < games.length, \"INCORRECT GAME ID\");\n        Game memory game = games[gameId];\n        require(game.status == GameStatus.CREATED, \"INCORRECT GAME STATUS\");\n        require(msg.value == game.value, \"INCORRECT VALUE\");\n        games[gameId].player = msg.sender;\n        games[gameId].status = GameStatus.STARTED;\n        games[gameId].startTime = now;\n    }\n\n    function newGuess(uint gameId, uint[] calldata digits) external {\n        require(gameId < games.length, \"INCORRECT GAME ID\");\n        Game memory game = games[gameId];\n        require(game.status == GameStatus.STARTED, \"INCORRECT GAME STATUS\");\n        require(msg.sender == game.player, \"INCORRECT PLAYER\");\n        require(game.guessCounter < game.guessNumber, \"INCORRECT PLAYER\");\n        require(digits.length == game.digitsNumber, \"INCORRECT DIGITS NUMBER\");\n        for (uint i = 0; i<digits.length; i++) {\n            require(digits[i] < 256, \"INCORRECT DIGIT VALUE (>255)\");\n        }\n\n        Guess memory guess = Guess(\n            digits,\n            0,\n            0,\n            Proof([uint(0),0],[[uint(0),0],[uint(0),0]],[uint(0),0]),\n            GuessStatus.CREATED,\n            now\n        );\n        guesses[gameId].push(guess);\n        games[gameId].guessCounter += 1;\n    }\n\n    function guessResult(\n        uint gameId,\n        uint guessId,\n        uint bulls,\n        uint cows,\n        Proof calldata proof\n    ) external {\n        require(gameId < games.length, \"INCORRECT GAME ID\");\n        Game memory game = games[gameId];\n        require(guessId < guesses[gameId].length, \"INCORRECT GUESS ID\");\n        Guess storage guess = guesses[gameId][guessId];\n        require(msg.sender == game.host, \"INCORRECT HOST\");\n        require(game.status == GameStatus.STARTED, \"INCORRECT GAME STATUS\");\n        require(guess.status == GuessStatus.CREATED, \"INCORRECT GUESS STATUS\");\n        \n        Proof memory _proof = proof; // for 5.11 compilation\n        guess.proof = _proof;\n        guess.bulls = bulls;\n        guess.cows = cows;\n        guess.status = GuessStatus.RESPONDED;\n        guess.time = now;\n    }\n\n    function chalengeResult(uint gameId, uint guessId) external {\n        require(gameId < games.length, \"INCORRECT GAME ID\");\n        Game memory game = games[gameId];\n        require(game.status == GameStatus.STARTED, \"INCORRECT GAME STATUS\");\n        require(guessId < guesses[gameId].length, \"INCORRECT GUESS ID\");\n        Guess storage guess = guesses[gameId][guessId];\n        require(guess.status == GuessStatus.RESPONDED, \"INCORRECT GUESS STATUS\");\n\n        uint[11] memory publicInputs = [\n            guess.bulls,\n            guess.cows,\n            game.hash,\n            guess.digits[0],\n            guess.digits[1],\n            guess.digits[2],\n            guess.digits[3],\n            guess.digits[4],\n            guess.digits[5],\n            guess.digits[6],\n            guess.digits[7]\n        ];\n        bool result = Verifier.verifyProof(\n            guess.proof.pi_a,\n            guess.proof.pi_b,\n            guess.proof.pi_c,\n            publicInputs\n        );\n        if (result != true) {\n            // player won\n            games[gameId].status = GameStatus.FINISHED;\n            game.player.transfer(2*game.value);\n        }\n    }\n\n    function forceStopGame(uint gameId) external returns(StopStatus) {\n        require(gameId < games.length, \"INCORRECT GAME ID\");\n        Game memory game = games[gameId];\n        require(game.status == GameStatus.STARTED, \"INCORRECT GAME STATUS\");\n\n        if (game.guessCounter > 0) {\n            Guess memory guess = guesses[gameId][game.guessCounter-1];\n            if (now > guess.time + chalengePeriod) {\n                if (guess.status == GuessStatus.CREATED) {\n                    // player won\n                    games[gameId].status = GameStatus.FINISHED;\n                    game.player.transfer(2*game.value);\n                    return StopStatus.PLAYERWON;\n                } else if (guess.status == GuessStatus.RESPONDED && game.guessCounter != game.guessNumber) {\n                    // host won\n                    games[gameId].status = GameStatus.FINISHED;\n                    game.host.transfer(2*game.value);\n                    return StopStatus.HOSTWON;\n                }\n            }\n        } else {\n            if (now > game.startTime + chalengePeriod) {\n                // host won\n                games[gameId].status = GameStatus.FINISHED;\n                game.host.transfer(2*game.value);\n                return StopStatus.HOSTWON;\n            }\n        }\n        return StopStatus.GAMECONTINUES;\n    }\n\n    function finalizeGame(uint gameId) external {\n        require(gameId < games.length, \"INCORRECT GAME ID\");\n        Game memory game = games[gameId];\n        require(game.status == GameStatus.STARTED, \"INCORRECT GAME STATUS\");\n        require(game.guessCounter > 0, \"INCORRECT GUESS COUNTER\");\n        Guess memory guess = guesses[gameId][game.guessCounter-1];\n        require(guess.status == GuessStatus.RESPONDED, \"INCORRECT GUESS STATUS\");\n\n        if (game.guessCounter < game.guessNumber) {\n            if (guess.bulls == game.digitsNumber) {\n                // player won\n                games[gameId].status = GameStatus.FINISHED;\n                game.player.transfer(2*game.value);\n            }\n        } else if (game.guessCounter == game.guessNumber) {\n            games[gameId].status = GameStatus.FINISHED;\n            if (guess.bulls == game.digitsNumber) {\n                // player won\n                game.player.transfer(2*game.value);\n            } else {\n                // TODO rewrite tests\n                //require(now > guess.time + chalengePeriod);\n                // host won\n                game.host.transfer(2*game.value);\n            }\n        }\n    }\n\n    function getGamesCount() external view returns(uint) {\n        return games.length;\n    }\n}",
  "sourcePath": "/Users/drygin/develop/Bulls-and-Cows/truffle/contracts/bullsAndCows.sol",
  "compiler": {
    "name": "solc",
    "version": "0.5.11+commit.c082d0b4.Emscripten.clang"
  },
  "schemaVersion": "3.0.23",
  "updatedAt": "2020-07-18T18:21:45.076Z",
  "devdoc": {
    "methods": {}
  },
  "userdoc": {
    "methods": {}
  }
}