{
  "contractName": "BullsAndCows",
  "abi": [
    {
      "constant": true,
      "inputs": [
        {
          "internalType": "uint256",
          "name": "",
          "type": "uint256"
        }
      ],
      "name": "games",
      "outputs": [
        {
          "internalType": "address payable",
          "name": "host",
          "type": "address"
        },
        {
          "internalType": "address payable",
          "name": "player",
          "type": "address"
        },
        {
          "internalType": "uint256",
          "name": "value",
          "type": "uint256"
        },
        {
          "internalType": "uint256",
          "name": "guessNumber",
          "type": "uint256"
        },
        {
          "internalType": "uint256",
          "name": "guessCounter",
          "type": "uint256"
        },
        {
          "internalType": "uint256",
          "name": "digitsNumber",
          "type": "uint256"
        },
        {
          "internalType": "uint256",
          "name": "hash",
          "type": "uint256"
        },
        {
          "internalType": "enum BullsAndCows.GameStatus",
          "name": "status",
          "type": "uint8"
        },
        {
          "internalType": "uint256",
          "name": "startTime",
          "type": "uint256"
        }
      ],
      "payable": false,
      "stateMutability": "view",
      "type": "function"
    },
    {
      "constant": false,
      "inputs": [
        {
          "internalType": "uint256",
          "name": "value",
          "type": "uint256"
        },
        {
          "internalType": "uint256",
          "name": "digitsNumber",
          "type": "uint256"
        },
        {
          "internalType": "uint256",
          "name": "guessNumber",
          "type": "uint256"
        },
        {
          "internalType": "uint256",
          "name": "hash",
          "type": "uint256"
        }
      ],
      "name": "newGame",
      "outputs": [
        {
          "internalType": "uint256",
          "name": "",
          "type": "uint256"
        }
      ],
      "payable": true,
      "stateMutability": "payable",
      "type": "function"
    },
    {
      "constant": false,
      "inputs": [
        {
          "internalType": "uint256",
          "name": "gameId",
          "type": "uint256"
        }
      ],
      "name": "deleteGame",
      "outputs": [],
      "payable": false,
      "stateMutability": "nonpayable",
      "type": "function"
    },
    {
      "constant": false,
      "inputs": [
        {
          "internalType": "uint256",
          "name": "gameId",
          "type": "uint256"
        }
      ],
      "name": "startGame",
      "outputs": [],
      "payable": true,
      "stateMutability": "payable",
      "type": "function"
    },
    {
      "constant": false,
      "inputs": [
        {
          "internalType": "uint256",
          "name": "gameId",
          "type": "uint256"
        },
        {
          "internalType": "uint256[]",
          "name": "digits",
          "type": "uint256[]"
        }
      ],
      "name": "newGuess",
      "outputs": [],
      "payable": false,
      "stateMutability": "nonpayable",
      "type": "function"
    },
    {
      "constant": false,
      "inputs": [
        {
          "internalType": "uint256",
          "name": "gameId",
          "type": "uint256"
        },
        {
          "internalType": "uint256",
          "name": "guessId",
          "type": "uint256"
        },
        {
          "internalType": "uint256",
          "name": "bulls",
          "type": "uint256"
        },
        {
          "internalType": "uint256",
          "name": "cows",
          "type": "uint256"
        },
        {
          "components": [
            {
              "internalType": "uint256[2]",
              "name": "pi_a",
              "type": "uint256[2]"
            },
            {
              "internalType": "uint256[2][2]",
              "name": "pi_b",
              "type": "uint256[2][2]"
            },
            {
              "internalType": "uint256[2]",
              "name": "pi_c",
              "type": "uint256[2]"
            }
          ],
          "internalType": "struct BullsAndCows.Proof",
          "name": "proof",
          "type": "tuple"
        }
      ],
      "name": "guessResult",
      "outputs": [],
      "payable": false,
      "stateMutability": "nonpayable",
      "type": "function"
    },
    {
      "constant": false,
      "inputs": [
        {
          "internalType": "uint256",
          "name": "gameId",
          "type": "uint256"
        },
        {
          "internalType": "uint256",
          "name": "guessId",
          "type": "uint256"
        }
      ],
      "name": "chalengeResult",
      "outputs": [],
      "payable": false,
      "stateMutability": "nonpayable",
      "type": "function"
    },
    {
      "constant": false,
      "inputs": [
        {
          "internalType": "uint256",
          "name": "gameId",
          "type": "uint256"
        }
      ],
      "name": "forceStopGame",
      "outputs": [
        {
          "internalType": "enum BullsAndCows.StopStatus",
          "name": "",
          "type": "uint8"
        }
      ],
      "payable": false,
      "stateMutability": "nonpayable",
      "type": "function"
    },
    {
      "constant": false,
      "inputs": [
        {
          "internalType": "uint256",
          "name": "gameId",
          "type": "uint256"
        }
      ],
      "name": "finalizeGame",
      "outputs": [],
      "payable": false,
      "stateMutability": "nonpayable",
      "type": "function"
    },
    {
      "constant": true,
      "inputs": [],
      "name": "getGamesCount",
      "outputs": [
        {
          "internalType": "uint256",
          "name": "",
          "type": "uint256"
        }
      ],
      "payable": false,
      "stateMutability": "view",
      "type": "function"
    },
    {
      "constant": true,
      "inputs": [
        {
          "internalType": "uint256",
          "name": "gameId",
          "type": "uint256"
        },
        {
          "internalType": "uint256",
          "name": "guessId",
          "type": "uint256"
        }
      ],
      "name": "getGuess",
      "outputs": [
        {
          "components": [
            {
              "internalType": "uint256[]",
              "name": "digits",
              "type": "uint256[]"
            },
            {
              "internalType": "uint256",
              "name": "bulls",
              "type": "uint256"
            },
            {
              "internalType": "uint256",
              "name": "cows",
              "type": "uint256"
            },
            {
              "components": [
                {
                  "internalType": "uint256[2]",
                  "name": "pi_a",
                  "type": "uint256[2]"
                },
                {
                  "internalType": "uint256[2][2]",
                  "name": "pi_b",
                  "type": "uint256[2][2]"
                },
                {
                  "internalType": "uint256[2]",
                  "name": "pi_c",
                  "type": "uint256[2]"
                }
              ],
              "internalType": "struct BullsAndCows.Proof",
              "name": "proof",
              "type": "tuple"
            },
            {
              "internalType": "enum BullsAndCows.GuessStatus",
              "name": "status",
              "type": "uint8"
            },
            {
              "internalType": "uint256",
              "name": "time",
              "type": "uint256"
            }
          ],
          "internalType": "struct BullsAndCows.Guess",
          "name": "",
          "type": "tuple"
        }
      ],
      "payable": false,
      "stateMutability": "view",
      "type": "function"
    }
  ],
  "bytecode": "0x6080604052610e1060025534801561001657600080fd5b50613ba0806100266000396000f3fe60806040526004361061009c5760003560e01c80634bb86180116100645780634bb8618014610163578063771197ee14610190578063a813895b146101b0578063cb9128e1146101c3578063e5ed1d59146101f0578063ea5cf7e8146102035761009c565b80630920a238146100a1578063117a5b90146100c357806317b7a47614610101578063248a55a11461012357806341f7347314610143575b600080fd5b3480156100ad57600080fd5b506100c16100bc36600461327a565b610223565b005b3480156100cf57600080fd5b506100e36100de366004613206565b610653565b6040516100f8999897969594939291906138c9565b60405180910390f35b34801561010d57600080fd5b506101166106be565b6040516100f89190613a85565b34801561012f57600080fd5b506100c161013e366004613206565b6106c5565b34801561014f57600080fd5b506100c161015e366004613315565b610844565b34801561016f57600080fd5b5061018361017e366004613206565b610a9d565b6040516100f8919061394f565b34801561019c57600080fd5b506100c16101ab366004613206565b610f95565b6101166101be3660046132b4565b611450565b3480156101cf57600080fd5b506101e36101de36600461327a565b611695565b6040516100f89190613a6d565b6100c16101fe366004613206565b61185d565b34801561020f57600080fd5b506100c161021e366004613224565b611a31565b600054821061024d5760405162461bcd60e51b8152600401610244906139bd565b60405180910390fd5b610255612d0d565b6000838154811061026257fe5b60009182526020918290206040805161012081018252600990930290910180546001600160a01b03908116845260018201541693830193909352600280840154918301919091526003830154606083015260048301546080830152600583015460a0830152600683015460c0830152600783015491929160e084019160ff909116908111156102ed57fe5b60028111156102f857fe5b815260089190910154602090910152905060018160e00151600281111561031b57fe5b146103385760405162461bcd60e51b81526004016102449061395d565b60008381526001602052604090205482106103655760405162461bcd60e51b81526004016102449061399d565b600083815260016020526040812080548490811061037f57fe5b60009182526020909120600d9091020190506001600b82015460ff1660018111156103a657fe5b146103c35760405162461bcd60e51b815260040161024490613a1d565b6103cb612d76565b60405180610160016040528083600101548152602001836002015481526020018460c0015181526020018360000160008154811061040557fe5b906000526020600020015481526020018360000160018154811061042557fe5b906000526020600020015481526020018360000160028154811061044557fe5b906000526020600020015481526020018360000160038154811061046557fe5b906000526020600020015481526020018360000160048154811061048557fe5b90600052602060002001548152602001836000016005815481106104a557fe5b90600052602060002001548152602001836000016006815481106104c557fe5b90600052602060002001548152602001836000016007815481106104e557fe5b6000918252602082200154909152604080518082019182905292935090916105be91600386019060029082845b81548152602001906001019080831161051257505060408051808201909152925050506005860160026000835b8282101561058557604080518082019182905290600284810287019182845b81548152602001906001019080831161055e5750505050508152602001906001019061053f565b50506040805180820191829052925060098901915060029082845b8154815260200190600101908083116105a057505050505085611dc8565b905060018115151461064b576002600087815481106105d957fe5b60009182526020909120600760099092020101805460ff1916600183600281111561060057fe5b021790555083602001516001600160a01b03166108fc85604001516002029081150290604051600060405180830381858888f19350505050158015610649573d6000803e3d6000fd5b505b505050505050565b6000818154811061066057fe5b60009182526020909120600990910201805460018201546002830154600384015460048501546005860154600687015460078801546008909801546001600160a01b0397881699509690951696939592949193909260ff9091169089565b6000545b90565b60005481106106e65760405162461bcd60e51b8152600401610244906139bd565b6106ee612d0d565b600082815481106106fb57fe5b60009182526020918290206040805161012081018252600990930290910180546001600160a01b03908116845260018201541693830193909352600280840154918301919091526003830154606083015260048301546080830152600583015460a0830152600683015460c0830152600783015491929160e084019160ff9091169081111561078657fe5b600281111561079157fe5b8152602001600882015481525050905080600001516001600160a01b0316336001600160a01b0316146107d65760405162461bcd60e51b8152600401610244906139fd565b60008160e0015160028111156107e857fe5b146108055760405162461bcd60e51b81526004016102449061395d565b60026000838154811061081457fe5b60009182526020909120600760099092020101805460ff1916600183600281111561083b57fe5b02179055505050565b60005485106108655760405162461bcd60e51b8152600401610244906139bd565b61086d612d0d565b6000868154811061087a57fe5b60009182526020918290206040805161012081018252600990930290910180546001600160a01b03908116845260018201541693830193909352600280840154918301919091526003830154606083015260048301546080830152600583015460a0830152600683015460c0830152600783015491929160e084019160ff9091169081111561090557fe5b600281111561091057fe5b815260089190910154602091820152600088815260019091526040902054909150851061094f5760405162461bcd60e51b81526004016102449061399d565b600086815260016020526040812080548790811061096957fe5b90600052602060002090600d0201905081600001516001600160a01b0316336001600160a01b0316146109ae5760405162461bcd60e51b815260040161024490613a5d565b60018260e0015160028111156109c057fe5b146109dd5760405162461bcd60e51b81526004016102449061395d565b6000600b82015460ff1660018111156109f257fe5b14610a0f5760405162461bcd60e51b815260040161024490613a1d565b610a17612d95565b610a26368590038501856131e7565b805190915081906003840190610a3f9082906002612dc7565b506020820151610a559060028084019190612e05565b506040820151610a6b9060068301906002612dc7565b5050505060018181019590955560028101939093555050600b8101805460ff191690921790915542600c909101555050565b600080548210610abf5760405162461bcd60e51b8152600401610244906139bd565b610ac7612d0d565b60008381548110610ad457fe5b60009182526020918290206040805161012081018252600990930290910180546001600160a01b03908116845260018201541693830193909352600280840154918301919091526003830154606083015260048301546080830152600583015460a0830152600683015460c0830152600783015491929160e084019160ff90911690811115610b5f57fe5b6002811115610b6a57fe5b815260089190910154602090910152905060018160e001516002811115610b8d57fe5b14610baa5760405162461bcd60e51b81526004016102449061395d565b608081015115610eef57610bbc612e4c565b600084815260016020526040902060808301518154600019909101908110610be057fe5b90600052602060002090600d02016040518060c001604052908160008201805480602002602001604051908101604052809291908181526020018280548015610c4857602002820191906000526020600020905b815481526020019060010190808311610c34575b505050918352505060018201546020820152600280830154604080840191909152805160a0810191829052606093840193909260038601928492830191849182845b815481526020019060010190808311610c8a575050505050815260200160028201600280602002604051908101604052809291906000905b82821015610d0857604080518082019182905290600284810287019182845b815481526020019060010190808311610ce157505050505081526020019060010190610cc2565b50505090825250604080518082019182905260209092019190600684019060029082845b815481526020019060010190808311610d2c57505050919092525050508152600b82015460209091019060ff166001811115610d6457fe5b6001811115610d6f57fe5b8152602001600c8201548152505090506002548160a0015101421115610ee957600081608001516001811115610da157fe5b1415610e3257600260008581548110610db657fe5b60009182526020909120600760099092020101805460ff19166001836002811115610ddd57fe5b021790555081602001516001600160a01b03166108fc83604001516002029081150290604051600060405180830381858888f19350505050158015610e26573d6000803e3d6000fd5b50600292505050610f90565b600181608001516001811115610e4457fe5b148015610e5957508160600151826080015114155b15610ee957600260008581548110610e6d57fe5b60009182526020909120600760099092020101805460ff19166001836002811115610e9457fe5b021790555081600001516001600160a01b03166108fc83604001516002029081150290604051600060405180830381858888f19350505050158015610edd573d6000803e3d6000fd5b50600192505050610f90565b50610f8a565b60025481610100015101421115610f8a57600260008481548110610f0f57fe5b60009182526020909120600760099092020101805460ff19166001836002811115610f3657fe5b021790555080600001516001600160a01b03166108fc82604001516002029081150290604051600060405180830381858888f19350505050158015610f7f573d6000803e3d6000fd5b506001915050610f90565b60009150505b919050565b6000548110610fb65760405162461bcd60e51b8152600401610244906139bd565b610fbe612d0d565b60008281548110610fcb57fe5b60009182526020918290206040805161012081018252600990930290910180546001600160a01b03908116845260018201541693830193909352600280840154918301919091526003830154606083015260048301546080830152600583015460a0830152600683015460c0830152600783015491929160e084019160ff9091169081111561105657fe5b600281111561106157fe5b815260089190910154602090910152905060018160e00151600281111561108457fe5b146110a15760405162461bcd60e51b81526004016102449061395d565b60008160800151116110c55760405162461bcd60e51b8152600401610244906139dd565b6110cd612e4c565b6000838152600160205260409020608083015181546000199091019081106110f157fe5b90600052602060002090600d02016040518060c00160405290816000820180548060200260200160405190810160405280929190818152602001828054801561115957602002820191906000526020600020905b815481526020019060010190808311611145575b505050918352505060018201546020820152600280830154604080840191909152805160a0810191829052606093840193909260038601928492830191849182845b81548152602001906001019080831161119b575050505050815260200160028201600280602002604051908101604052809291906000905b8282101561121957604080518082019182905290600284810287019182845b8154815260200190600101908083116111f2575050505050815260200190600101906111d3565b50505090825250604080518082019182905260209092019190600684019060029082845b81548152602001906001019080831161123d57505050919092525050508152600b82015460209091019060ff16600181111561127557fe5b600181111561128057fe5b8152600c919091015460209091015290506001816080015160018111156112a357fe5b146112c05760405162461bcd60e51b815260040161024490613a1d565b816060015182608001511015611366578160a0015181602001511415611361576002600084815481106112ef57fe5b60009182526020909120600760099092020101805460ff1916600183600281111561131657fe5b021790555081602001516001600160a01b03166108fc83604001516002029081150290604051600060405180830381858888f1935050505015801561135f573d6000803e3d6000fd5b505b61144b565b81606001518260800151141561144b5760026000848154811061138557fe5b60009182526020909120600760099092020101805460ff191660018360028111156113ac57fe5b02179055508160a00151816020015114156114055781602001516001600160a01b03166108fc83604001516002029081150290604051600060405180830381858888f1935050505015801561135f573d6000803e3d6000fd5b81600001516001600160a01b03166108fc83604001516002029081150290604051600060405180830381858888f19350505050158015611449573d6000803e3d6000fd5b505b505050565b60008434146114715760405162461bcd60e51b8152600401610244906139ad565b611479612d0d565b604051806101200160405280336001600160a01b0316815260200160006001600160a01b0316815260200187815260200185815260200160008152602001868152602001848152602001600060028111156114d057fe5b81526000602091820181905280546001818101808455928052845160099092027f290decd9548b62a8d60345a988386fc84ba6bc95484008f6362f93160ef3e563810180546001600160a01b039485166001600160a01b0319918216178255958701517f290decd9548b62a8d60345a988386fc84ba6bc95484008f6362f93160ef3e564830180549190951696169590951790925560408501517f290decd9548b62a8d60345a988386fc84ba6bc95484008f6362f93160ef3e56583015560608501517f290decd9548b62a8d60345a988386fc84ba6bc95484008f6362f93160ef3e56683015560808501517f290decd9548b62a8d60345a988386fc84ba6bc95484008f6362f93160ef3e56783015560a08501517f290decd9548b62a8d60345a988386fc84ba6bc95484008f6362f93160ef3e56883015560c08501517f290decd9548b62a8d60345a988386fc84ba6bc95484008f6362f93160ef3e56983015560e08501517f290decd9548b62a8d60345a988386fc84ba6bc95484008f6362f93160ef3e56a909201805495965092948694939160ff199091169083600281111561167957fe5b0217905550610100820151816008015550505050949350505050565b61169d612e4c565b60008381526001602052604090208054839081106116b757fe5b90600052602060002090600d02016040518060c00160405290816000820180548060200260200160405190810160405280929190818152602001828054801561171f57602002820191906000526020600020905b81548152602001906001019080831161170b575b505050918352505060018201546020820152600280830154604080840191909152805160a0810191829052606093840193909260038601928492830191849182845b815481526020019060010190808311611761575050505050815260200160028201600280602002604051908101604052809291906000905b828210156117df57604080518082019182905290600284810287019182845b8154815260200190600101908083116117b857505050505081526020019060010190611799565b50505090825250604080518082019182905260209092019190600684019060029082845b81548152602001906001019080831161180357505050919092525050508152600b82015460209091019060ff16600181111561183b57fe5b600181111561184657fe5b8152602001600c8201548152505090505b92915050565b600054811061187e5760405162461bcd60e51b8152600401610244906139bd565b611886612d0d565b6000828154811061189357fe5b60009182526020918290206040805161012081018252600990930290910180546001600160a01b03908116845260018201541693830193909352600280840154918301919091526003830154606083015260048301546080830152600583015460a0830152600683015460c0830152600783015491929160e084019160ff9091169081111561191e57fe5b600281111561192957fe5b815260089190910154602090910152905060008160e00151600281111561194c57fe5b146119695760405162461bcd60e51b81526004016102449061395d565b8060400151341461198c5760405162461bcd60e51b8152600401610244906139ad565b336000838154811061199a57fe5b906000526020600020906009020160010160006101000a8154816001600160a01b0302191690836001600160a01b031602179055506001600083815481106119de57fe5b60009182526020909120600760099092020101805460ff19166001836002811115611a0557fe5b02179055504260008381548110611a1857fe5b9060005260206000209060090201600801819055505050565b6000548310611a525760405162461bcd60e51b8152600401610244906139bd565b611a5a612d0d565b60008481548110611a6757fe5b60009182526020918290206040805161012081018252600990930290910180546001600160a01b03908116845260018201541693830193909352600280840154918301919091526003830154606083015260048301546080830152600583015460a0830152600683015460c0830152600783015491929160e084019160ff90911690811115611af257fe5b6002811115611afd57fe5b815260089190910154602090910152905060018160e001516002811115611b2057fe5b14611b3d5760405162461bcd60e51b81526004016102449061395d565b80602001516001600160a01b0316336001600160a01b031614611b725760405162461bcd60e51b8152600401610244906139ed565b8060600151816080015110611b995760405162461bcd60e51b8152600401610244906139ed565b60a08101518214611bbc5760405162461bcd60e51b815260040161024490613a0d565b60005b82811015611c0257610100848483818110611bd657fe5b9050602002013510611bfa5760405162461bcd60e51b81526004016102449061396d565b600101611bbf565b50611c0b612e4c565b6040518060c00160405280858580806020026020016040519081016040528093929190818152602001838360200280828437600092018290525093855250505060208083018290526040808401839052805160a08082018352606080830186815260808085018890529084528451808201865280860188815281840189905281528551808701875288815280880189905281880152848701528451808601865287815280870188905284860152908701929092529085018490524294019390935288825260018082529282208054938401808255908352918190208451805195965092948694600d0290910192611d06928492910190612e80565b506020820151816001015560408201518160020155606082015181600301600082015181600001906002611d3b929190612dc7565b506020820151611d519060028084019190612e05565b506040820151611d679060068301906002612dc7565b5050506080820151600b8201805460ff191660018381811115611d8657fe5b021790555060a082015181600c0155505050600160008681548110611da757fe5b60009182526020909120600460099092020101805490910190555050505050565b6000611dd2612eba565b6040805180820182528751815260208089015181830152908352815160808101835287515181840190815288518301516060808401919091529082528351808501855289840180515182525184015181850152828401528483019190915282518084018452875181528783015181840152848401528251600b80825261018082019094529092909182016101608038833901905050905060005b600b811015611ea5578481600b8110611e8157fe5b6020020151828281518110611e9257fe5b6020908102919091010152600101611e6c565b50611eb08183611ece565b611ebf57600192505050611ec6565b6000925050505b949350505050565b60007f30644e72e131a029b85045b68181585d2833e84879b9709143e1f593f0000001611ef9612ee7565b611f01612045565b9050806080015151855160010114611f2b5760405162461bcd60e51b81526004016102449061397d565b611f33612f2e565b50604080518082019091526000808252602082018190525b8651811015611fd05783878281518110611f6157fe5b602002602001015110611f865760405162461bcd60e51b8152600401610244906139cd565b611fc682611fc185608001518460010181518110611fa057fe5b60200260200101518a8581518110611fb457fe5b6020026020010151612833565b61289e565b9150600101611f4b565b50611ff3818360800151600081518110611fe657fe5b602002602001015161289e565b90506120296120058660000151612905565b8660200151846000015185602001518587604001518b60400151896060015161298f565b6120395760019350505050611857565b50600095945050505050565b61204d612ee7565b6040805180820182527f15d8a47522582a07bf97c4a6da62bae06809d3f24f14dcccee00e37a5c68d6af81527f2de3d12485d2c1206c6adac0a4c0639eaa6b3d41f5d43204afd1e9d6492de3626020808301919091529083528151608080820184527f0f668bce9ffc5ed1f429003d1fbc4f9999dd1e8392545340980ca4c00565a7548285019081527f100fa54a8e37acd1526eef269c709d4e3fdf8266d22abcd28e6c320cd2e1d2ac606080850191909152908352845180860186527f2f0e1576183c7f436c8ea8b1b80b7e870aa0b99ae958dbccdb5fa1a813081fad81527f0683e8be71bc125573134ab058b2ad1e56f778fd951c49cf7b448d6cabec29b7818601528385015285840192909252835180820185527f0d389c7198e986e008676def6ede810b50105524d4b87d2c0a2a5ebcb867d8098186019081527f21ab3da7d8ba6287d6cdd6ce937de80d57c2c4720ebee723050913d9374a9455828501528152845180860186527f1d132de740667dd768de2b0e6c4d0c8c04bbe387a4f09824914359a321fffaff81527f1b1c4af48835ba1d48c75e59c629ba85e0f49309f7de50f7e2a65ec7182b6343818601528185015285850152835190810184527f22dc23fd936549ce7f5bf5501828314bafb26076a122ddeb952668ac4a70f8f18185019081527f06a059fa064f434e175b952e06f559c523279078d48fa17032ded5018efb87d1828401528152835180850185527f24cbd316cb30086cb87f3504c35781f6095b004aeab777a47b72bbb5da910c1181527f28d6b766b3f64494470cf0bcd5ab65cfaa6efda8af711af40b1c6b6187c3aa838185015281840152908401528151600c8082526101a08201909352919082015b6122d1612f2e565b8152602001906001900390816122c957505060808201908152604080518082019091527f03d767ca7bf2b10498d1676f22c5864ad2a0ba06b88a38a97c88e40fb51afe2d81527f03bf32f0c469955057c1ea91af61a1380cd175476bdfaf161098e89585dc8f9560208201529051805160009061234a57fe5b602002602001018190525060405180604001604052807f21273c75b6f2c5d06ecd9490ad8cf53daf411e5efedafb40e65bcaacdc9ec03781526020017f297dd4352ee2be5d348ffc51a1e0a0ff45d124eff30d51c58608c1a1fe24050e81525081608001516001815181106123bb57fe5b602002602001018190525060405180604001604052807f1160acd05e28718669504131964db19e13e06cb590c6a027f7332c6a4647a72381526020017f2bb4eaebb04cc73af18e71fce046cd6306cf2b4a798e8b8809d2f2f6aa750c17815250816080015160028151811061242c57fe5b602002602001018190525060405180604001604052807f0d2158270a23132f4486ee110f5cc28d6e29e13b4f195828c86f9f0d26a004f781526020017f2c313f3f70e650731a2b2cc976eb2fcd898ceaa7d26bf485e7154231966eac02815250816080015160038151811061249d57fe5b602002602001018190525060405180604001604052807f0fbcab0f7a03d494934774578dee7d9cfcee2d65dcb3dad7b2a94c713243110981526020017f1a8fe2465f99ea13731b9d5e569a33cf024fa87a1c0bb3041c5545990425c2cf815250816080015160048151811061250e57fe5b602002602001018190525060405180604001604052807f289dd871333cb205934d1e0fe91ca54d8e0ca9e93b8bdaa50f2954984f9357ff81526020017f0eb5bb5c70fb45214dcf6691ed6074864034fa50a5df8230edd89ffb7429541d815250816080015160058151811061257f57fe5b602002602001018190525060405180604001604052807f19ec728a4d720b6b25d20a5b685275e04abfd4f7c6c1d44421d5c5f24b8ef2a081526020017f28e20ff8bc2fd49155572d071cc5761bc7f0c520cb92cf90cc848905994a55cb81525081608001516006815181106125f057fe5b602002602001018190525060405180604001604052807f1e2191e67bb4f28817bbfd99d81e126510a957dae7af273af9b21fa944c07c3d81526020017f27ccbfb864aa211b7e76bb23049d479a9a32f9b1f38347ff91607deeec768be2815250816080015160078151811061266157fe5b602002602001018190525060405180604001604052807f13c1e74d5ad5e88bfc7a791e8778f78bfd015c4b78e2d08566a5632666209eea81526020017f0b35f613ff22e774bf963d2b4df4cdf5e160a0d22ce892e3f4d3bf65d1d0667a81525081608001516008815181106126d257fe5b602002602001018190525060405180604001604052807f1cd625fd3f248b50e53fcf43e52983efb02076ae60610ec9781c184df3fb6ec381526020017f1a6063449a8ef10d09d86019e0359f949e02bfd4b9037e965e799b4a14a35e00815250816080015160098151811061274357fe5b602002602001018190525060405180604001604052807f097861f5fca46e13785998eafd796866824b17dcf57d393ff1fafaed58a8410f81526020017f2872cb97c232c2d3bea5681a5272675cb3d00616d8fd45e6478fc8595fabb9d58152508160800151600a815181106127b457fe5b602002602001018190525060405180604001604052807f0eb3a8de957f62fe6ea7dd93764162578984f848a7519c359e92d4edf247d4a581526020017f2aff012eb67aad9dde0da8dc9e8dde0c001be159fbc0c5351e61c0b0bd2249688152508160800151600b8151811061282557fe5b602002602001018190525090565b61283b612f2e565b612843612f48565b835181526020808501519082015260408101839052600060608360808460076107d05a03fa905080801561287657612878565bfe5b50806128965760405162461bcd60e51b81526004016102449061398d565b505092915050565b6128a6612f2e565b6128ae612f66565b8351815260208085015181830152835160408301528301516060808301919091526000908360c08460066107d05a03fa90508080156128765750806128965760405162461bcd60e51b815260040161024490613a3d565b61290d612f2e565b81517f30644e72e131a029b85045b68181585d97816a916871ca8d3c208c16d87cfd479015801561294057506020830151155b156129605750506040805180820190915260008082526020820152610f90565b6040518060400160405280846000015181526020018285602001518161298257fe5b0690920390915292915050565b60408051600480825260a0820190925260009160609190816020015b6129b3612f2e565b8152602001906001900390816129ab57505060408051600480825260a0820190925291925060609190602082015b6129e9612f84565b8152602001906001900390816129e15790505090508a82600081518110612a0c57fe5b60200260200101819052508882600181518110612a2557fe5b60200260200101819052508682600281518110612a3e57fe5b60200260200101819052508482600381518110612a5757fe5b60200260200101819052508981600081518110612a7057fe5b60200260200101819052508781600181518110612a8957fe5b60200260200101819052508581600281518110612aa257fe5b60200260200101819052508381600381518110612abb57fe5b6020026020010181905250612ad08282612adf565b9b9a5050505050505050505050565b60008151835114612b025760405162461bcd60e51b815260040161024490613a2d565b8251604080516006830280825260c084028201602001909252606090828015612b35578160200160208202803883390190505b50905060005b83811015612cba57868181518110612b4f57fe5b602002602001015160000151828260060260000181518110612b6d57fe5b602002602001018181525050868181518110612b8557fe5b602002602001015160200151828260060260010181518110612ba357fe5b602002602001018181525050858181518110612bbb57fe5b602090810291909101015151518251839060026006850201908110612bdc57fe5b602002602001018181525050858181518110612bf457fe5b60209081029190910101515160016020020151828260060260030181518110612c1957fe5b602002602001018181525050858181518110612c3157fe5b602002602001015160200151600060028110612c4957fe5b6020020151828260060260040181518110612c6057fe5b602002602001018181525050858181518110612c7857fe5b602002602001015160200151600160028110612c9057fe5b6020020151828260060260050181518110612ca757fe5b6020908102919091010152600101612b3b565b50612cc3612f97565b6000602082602086026020860160086107d05a03fa9050808015612876575080612cff5760405162461bcd60e51b815260040161024490613a4d565b505115159695505050505050565b60405180610120016040528060006001600160a01b0316815260200160006001600160a01b03168152602001600081526020016000815260200160008152602001600081526020016000815260200160006002811115612d6957fe5b8152602001600081525090565b604051806101600160405280600b906020820280388339509192915050565b6040518060600160405280612da8612fb5565b8152602001612db5612fd3565b8152602001612dc2612fb5565b905290565b8260028101928215612df5579160200282015b82811115612df5578251825591602001919060010190612dda565b50612e01929150613000565b5090565b600483019183908215612e40579160200282015b82811115612e40578251612e309083906002612dc7565b5091602001919060020190612e19565b50612e0192915061301a565b6040518060c00160405280606081526020016000815260200160008152602001612e74612d95565b81526020016000612d69565b828054828255906000526020600020908101928215612df55791602002820182811115612df5578251825591602001919060010190612dda565b6040518060600160405280612ecd612f2e565b8152602001612eda612f84565b8152602001612dc2612f2e565b6040518060a00160405280612efa612f2e565b8152602001612f07612f84565b8152602001612f14612f84565b8152602001612f21612f84565b8152602001606081525090565b604051806040016040528060008152602001600081525090565b60405180606001604052806003906020820280388339509192915050565b60405180608001604052806004906020820280388339509192915050565b6040518060400160405280612db5612fb5565b60405180602001604052806001906020820280388339509192915050565b60405180604001604052806002906020820280388339509192915050565b60405180604001604052806002905b612fea612fb5565b815260200190600190039081612fe25790505090565b6106c291905b80821115612e015760008155600101613006565b6106c291905b80821115612e01576000613034828261303d565b50600201613020565b506000815560010160009055565b600082601f83011261305c57600080fd5b600261306f61306a82613aba565b613a93565b9150818385604084028201111561308557600080fd5b60005b838110156130b3578161309b88826130bd565b84525060209092019160409190910190600101613088565b5050505092915050565b600082601f8301126130ce57600080fd5b60026130dc61306a82613aba565b915081838560208402820111156130f257600080fd5b60005b838110156130b3578161310888826131dc565b84525060209283019291909101906001016130f5565b60008083601f84011261313057600080fd5b50813567ffffffffffffffff81111561314857600080fd5b60208301915083602082028301111561316057600080fd5b9250929050565b6000610100828403121561317a57600080fd5b50919050565b6000610100828403121561319357600080fd5b61319d6060613a93565b905060006131ab84846130bd565b82525060406131bc8484830161304b565b60208301525060c06131d0848285016130bd565b60408301525092915050565b803561185781613b49565b600061010082840312156131fa57600080fd5b6000611ec68484613180565b60006020828403121561321857600080fd5b6000611ec684846131dc565b60008060006040848603121561323957600080fd5b600061324586866131dc565b935050602084013567ffffffffffffffff81111561326257600080fd5b61326e8682870161311e565b92509250509250925092565b6000806040838503121561328d57600080fd5b600061329985856131dc565b92505060206132aa858286016131dc565b9150509250929050565b600080600080608085870312156132ca57600080fd5b60006132d687876131dc565b94505060206132e7878288016131dc565b93505060406132f8878288016131dc565b9250506060613309878288016131dc565b91505092959194509250565b6000806000806000610180868803121561332e57600080fd5b600061333a88886131dc565b955050602061334b888289016131dc565b945050604061335c888289016131dc565b935050606061336d888289016131dc565b925050608061337e88828901613167565b9150509295509295909350565b6000613397838361340e565b505060400190565b60006133ab83836138c0565b505060200190565b6133bc81613af1565b82525050565b6133cb81613ade565b6133d58184610f90565b92506133e0826106c2565b8060005b8381101561064b5781516133f8878261338b565b965061340383613ad8565b9250506001016133e4565b61341781613ade565b6134218184610f90565b925061342c826106c2565b8060005b8381101561064b578151613444878261339f565b965061344f83613ad8565b925050600101613430565b600061346582613ae4565b61346f8185613ae8565b935061347a83613ad8565b8060005b838110156134a8578151613492888261339f565b975061349d83613ad8565b92505060010161347e565b509495945050505050565b6133bc81613b1c565b6133bc81613b27565b60006134d2601583613ae8565b74494e434f52524543542047414d452053544154555360581b815260200192915050565b6000613503601c83613ae8565b7f494e434f52524543542044494749542056414c554520283e3235352900000000815260200192915050565b600061353c601283613ae8565b711d995c9a599a595c8b5898590b5a5b9c1d5d60721b815260200192915050565b600061356a601283613ae8565b711c185a5c9a5b99cb5b5d5b0b59985a5b195960721b815260200192915050565b6000613598601283613ae8565b71125390d3d4949150d50811d55154d4c8125160721b815260200192915050565b60006135c6600f83613ae8565b6e494e434f52524543542056414c554560881b815260200192915050565b60006135f1601183613ae8565b70125390d3d4949150d50811d05351481251607a1b815260200192915050565b600061361e601f83613ae8565b7f76657269666965722d6774652d736e61726b2d7363616c61722d6669656c6400815260200192915050565b6000613657601783613ae8565b7f494e434f525245435420475545535320434f554e544552000000000000000000815260200192915050565b6000613690601083613ae8565b6f24a721a7a92922a1aa10282620aca2a960811b815260200192915050565b60006136bc601383613ae8565b72125390d3d4949150d50811d05351481213d4d5606a1b815260200192915050565b60006136eb601783613ae8565b7f494e434f525245435420444947495453204e554d424552000000000000000000815260200192915050565b6000613724601683613ae8565b75494e434f52524543542047554553532053544154555360501b815260200192915050565b6000613756601683613ae8565b751c185a5c9a5b99cb5b195b99dd1a1ccb59985a5b195960521b815260200192915050565b6000613788601283613ae8565b711c185a5c9a5b99cb5859190b59985a5b195960721b815260200192915050565b60006137b6601583613ae8565b741c185a5c9a5b99cb5bdc18dbd9194b59985a5b1959605a1b815260200192915050565b60006137e7600e83613ae8565b6d125390d3d4949150d5081213d4d560921b815260200192915050565b80516101a08084526000919084019061381d828261345a565b915050602083015161383260208601826138c0565b50604083015161384560408601826138c0565b5060608301516138586060860182613888565b50608083015161386c6101608601826134bc565b5060a08301516138806101808601826138c0565b509392505050565b805161010083019061389a848261340e565b5060208201516138ad60408501826133c2565b50604082015161144960c085018261340e565b6133bc816106c2565b61012081016138d8828c6133b3565b6138e5602083018b6133b3565b6138f2604083018a6138c0565b6138ff60608301896138c0565b61390c60808301886138c0565b61391960a08301876138c0565b61392660c08301866138c0565b61393360e08301856134b3565b6139416101008301846138c0565b9a9950505050505050505050565b6020810161185782846134b3565b60208082528101611857816134c5565b60208082528101611857816134f6565b602080825281016118578161352f565b602080825281016118578161355d565b602080825281016118578161358b565b60208082528101611857816135b9565b60208082528101611857816135e4565b6020808252810161185781613611565b602080825281016118578161364a565b6020808252810161185781613683565b60208082528101611857816136af565b60208082528101611857816136de565b6020808252810161185781613717565b6020808252810161185781613749565b602080825281016118578161377b565b60208082528101611857816137a9565b60208082528101611857816137da565b60208082528101613a7e8184613804565b9392505050565b6020810161185782846138c0565b60405181810167ffffffffffffffff81118282101715613ab257600080fd5b604052919050565b600067ffffffffffffffff821115613ad157600080fd5b5060200290565b60200190565b50600290565b5190565b90815260200190565b600061185782613b10565b80610f9081613b32565b80610f9081613b3f565b6001600160a01b031690565b600061185782613afc565b600061185782613b06565b60038110613b3c57fe5b50565b60028110613b3c57fe5b613b52816106c2565b8114613b3c57600080fdfea365627a7a72315820d9ad17e4185b8be4c8fe3b3aa68924f64be36f30d7e33ae6520cd10cb5ea61fb6c6578706572696d656e74616cf564736f6c634300050b0040",
  "source": "pragma solidity 0.5.11;\npragma experimental ABIEncoderV2;\n\nimport \"./verifier.sol\";\n\n\ncontract BullsAndCows {\n\n    struct Proof {\n        uint[2]  pi_a;\n        uint[2][2]  pi_b;\n        uint[2]  pi_c;\n    }\n\n    enum StopStatus {\n        GAMECONTINUES,\n        HOSTWON,\n        PLAYERWON\n    }\n\n    enum GameStatus {\n        CREATED,\n        STARTED,\n        FINISHED\n    }\n\n    struct Game {\n        address payable host;\n        address payable player;\n        uint value;\n        uint guessNumber;\n        uint guessCounter;\n        uint digitsNumber;\n        uint hash;\n        GameStatus status;\n        uint startTime;\n    }\n\n    enum GuessStatus {\n        CREATED,\n        RESPONDED\n    }\n\n    struct Guess {\n        uint[] digits;\n        uint bulls;\n        uint cows;\n        Proof proof;\n        GuessStatus status;\n        uint time;\n    }\n\n    Game[] public games;\n    mapping(uint => Guess[]) internal guesses;\n\n    uint chalengePeriod = 1 hours;\n\n\n    function newGame(\n        uint value,\n        uint digitsNumber,\n        uint guessNumber,\n        uint hash\n    ) external payable returns (uint) {\n        require(msg.value == value, \"INCORRECT VALUE\");\n        // TODO check digitsNumber consistency [4,5,6]\n        // TODO real word proof and chalenge function\n        Game memory game = Game(\n            msg.sender,\n            address(0),\n            value,\n            guessNumber,\n            0,\n            digitsNumber,\n            hash,\n            GameStatus.CREATED,\n            0\n        );\n        games.push(game);\n    }\n\n    function deleteGame(uint gameId) external {\n        require(gameId < games.length, \"INCORRECT GAME ID\");\n        Game memory game = games[gameId];\n        require(msg.sender == game.host, \"INCORRECT GAME HOST\");\n        require(game.status == GameStatus.CREATED, \"INCORRECT GAME STATUS\");\n        games[gameId].status = GameStatus.FINISHED;\n    }\n\n    function startGame(uint gameId) external payable {\n        require(gameId < games.length, \"INCORRECT GAME ID\");\n        Game memory game = games[gameId];\n        require(game.status == GameStatus.CREATED, \"INCORRECT GAME STATUS\");\n        require(msg.value == game.value, \"INCORRECT VALUE\");\n        games[gameId].player = msg.sender;\n        games[gameId].status = GameStatus.STARTED;\n        games[gameId].startTime = now;\n    }\n\n    function newGuess(uint gameId, uint[] calldata digits) external {\n        require(gameId < games.length, \"INCORRECT GAME ID\");\n        Game memory game = games[gameId];\n        require(game.status == GameStatus.STARTED, \"INCORRECT GAME STATUS\");\n        require(msg.sender == game.player, \"INCORRECT PLAYER\");\n        require(game.guessCounter < game.guessNumber, \"INCORRECT PLAYER\");\n        require(digits.length == game.digitsNumber, \"INCORRECT DIGITS NUMBER\");\n        for (uint i = 0; i<digits.length; i++) {\n            require(digits[i] < 256, \"INCORRECT DIGIT VALUE (>255)\");\n        }\n\n        Guess memory guess = Guess(\n            digits,\n            0,\n            0,\n            Proof([uint(0),0],[[uint(0),0],[uint(0),0]],[uint(0),0]),\n            GuessStatus.CREATED,\n            now\n        );\n        guesses[gameId].push(guess);\n        games[gameId].guessCounter += 1;\n    }\n\n    function guessResult(\n        uint gameId,\n        uint guessId,\n        uint bulls,\n        uint cows,\n        Proof calldata proof\n    ) external {\n        require(gameId < games.length, \"INCORRECT GAME ID\");\n        Game memory game = games[gameId];\n        require(guessId < guesses[gameId].length, \"INCORRECT GUESS ID\");\n        Guess storage guess = guesses[gameId][guessId];\n        require(msg.sender == game.host, \"INCORRECT HOST\");\n        require(game.status == GameStatus.STARTED, \"INCORRECT GAME STATUS\");\n        require(guess.status == GuessStatus.CREATED, \"INCORRECT GUESS STATUS\");\n        \n        Proof memory _proof = proof; // for 5.11 compilation\n        guess.proof = _proof;\n        guess.bulls = bulls;\n        guess.cows = cows;\n        guess.status = GuessStatus.RESPONDED;\n        guess.time = now;\n    }\n\n    function chalengeResult(uint gameId, uint guessId) external {\n        require(gameId < games.length, \"INCORRECT GAME ID\");\n        Game memory game = games[gameId];\n        require(game.status == GameStatus.STARTED, \"INCORRECT GAME STATUS\");\n        require(guessId < guesses[gameId].length, \"INCORRECT GUESS ID\");\n        Guess storage guess = guesses[gameId][guessId];\n        require(guess.status == GuessStatus.RESPONDED, \"INCORRECT GUESS STATUS\");\n\n        uint[11] memory publicInputs = [\n            guess.bulls,\n            guess.cows,\n            game.hash,\n            guess.digits[0],\n            guess.digits[1],\n            guess.digits[2],\n            guess.digits[3],\n            guess.digits[4],\n            guess.digits[5],\n            guess.digits[6],\n            guess.digits[7]\n        ];\n        bool result = Verifier.verifyProof(\n            guess.proof.pi_a,\n            guess.proof.pi_b,\n            guess.proof.pi_c,\n            publicInputs\n        );\n        if (result != true) {\n            // player won\n            games[gameId].status = GameStatus.FINISHED;\n            game.player.transfer(2*game.value);\n        }\n    }\n\n    function forceStopGame(uint gameId) external returns(StopStatus) {\n        require(gameId < games.length, \"INCORRECT GAME ID\");\n        Game memory game = games[gameId];\n        require(game.status == GameStatus.STARTED, \"INCORRECT GAME STATUS\");\n\n        if (game.guessCounter > 0) {\n            Guess memory guess = guesses[gameId][game.guessCounter-1];\n            if (now > guess.time + chalengePeriod) {\n                if (guess.status == GuessStatus.CREATED) {\n                    // player won\n                    games[gameId].status = GameStatus.FINISHED;\n                    game.player.transfer(2*game.value);\n                    return StopStatus.PLAYERWON;\n                } else if (guess.status == GuessStatus.RESPONDED && game.guessCounter != game.guessNumber) {\n                    // host won\n                    games[gameId].status = GameStatus.FINISHED;\n                    game.host.transfer(2*game.value);\n                    return StopStatus.HOSTWON;\n                }\n            }\n        } else {\n            if (now > game.startTime + chalengePeriod) {\n                // host won\n                games[gameId].status = GameStatus.FINISHED;\n                game.host.transfer(2*game.value);\n                return StopStatus.HOSTWON;\n            }\n        }\n        return StopStatus.GAMECONTINUES;\n    }\n\n    function finalizeGame(uint gameId) external {\n        require(gameId < games.length, \"INCORRECT GAME ID\");\n        Game memory game = games[gameId];\n        require(game.status == GameStatus.STARTED, \"INCORRECT GAME STATUS\");\n        require(game.guessCounter > 0, \"INCORRECT GUESS COUNTER\");\n        Guess memory guess = guesses[gameId][game.guessCounter-1];\n        require(guess.status == GuessStatus.RESPONDED, \"INCORRECT GUESS STATUS\");\n\n        if (game.guessCounter < game.guessNumber) {\n            if (guess.bulls == game.digitsNumber) {\n                // player won\n                games[gameId].status = GameStatus.FINISHED;\n                game.player.transfer(2*game.value);\n            }\n        } else if (game.guessCounter == game.guessNumber) {\n            games[gameId].status = GameStatus.FINISHED;\n            if (guess.bulls == game.digitsNumber) {\n                // player won\n                game.player.transfer(2*game.value);\n            } else {\n                // TODO rewrite tests\n                //require(now > guess.time + chalengePeriod);\n                // host won\n                game.host.transfer(2*game.value);\n            }\n        }\n    }\n\n    function getGamesCount() external view returns(uint) {\n        return games.length;\n    }\n\n    function getGuess(uint gameId, uint guessId) external view returns(Guess memory) {\n        return guesses[gameId][guessId];\n    }\n}",
  "sourcePath": "/Users/drygin/develop/Bulls-and-Cows/truffle/contracts/bullsAndCows.sol",
  "compiler": {
    "name": "solc",
    "version": "0.5.11+commit.c082d0b4.Emscripten.clang"
  },
  "schemaVersion": "3.0.23",
  "updatedAt": "2020-07-19T10:13:58.966Z",
  "devdoc": {
    "methods": {}
  },
  "userdoc": {
    "methods": {}
  }
}