{
  "contractName": "BullsAndCows",
  "abi": [
    {
      "constant": true,
      "inputs": [
        {
          "internalType": "uint256",
          "name": "",
          "type": "uint256"
        }
      ],
      "name": "games",
      "outputs": [
        {
          "internalType": "address payable",
          "name": "host",
          "type": "address"
        },
        {
          "internalType": "address payable",
          "name": "player",
          "type": "address"
        },
        {
          "internalType": "uint256",
          "name": "value",
          "type": "uint256"
        },
        {
          "internalType": "uint256",
          "name": "guessNumber",
          "type": "uint256"
        },
        {
          "internalType": "uint256",
          "name": "guessCounter",
          "type": "uint256"
        },
        {
          "internalType": "uint256",
          "name": "digitsNumber",
          "type": "uint256"
        },
        {
          "internalType": "uint256",
          "name": "hash",
          "type": "uint256"
        },
        {
          "internalType": "enum BullsAndCows.GameStatus",
          "name": "status",
          "type": "uint8"
        },
        {
          "internalType": "uint256",
          "name": "startTime",
          "type": "uint256"
        }
      ],
      "payable": false,
      "stateMutability": "view",
      "type": "function"
    },
    {
      "constant": true,
      "inputs": [
        {
          "internalType": "uint256",
          "name": "",
          "type": "uint256"
        },
        {
          "internalType": "uint256",
          "name": "",
          "type": "uint256"
        }
      ],
      "name": "guesses",
      "outputs": [
        {
          "internalType": "uint256",
          "name": "bulls",
          "type": "uint256"
        },
        {
          "internalType": "uint256",
          "name": "cows",
          "type": "uint256"
        },
        {
          "components": [
            {
              "internalType": "uint256[2]",
              "name": "pi_a",
              "type": "uint256[2]"
            },
            {
              "internalType": "uint256[2][2]",
              "name": "pi_b",
              "type": "uint256[2][2]"
            },
            {
              "internalType": "uint256[2]",
              "name": "pi_c",
              "type": "uint256[2]"
            }
          ],
          "internalType": "struct IBullsAndCows.Proof",
          "name": "proof",
          "type": "tuple"
        },
        {
          "internalType": "enum BullsAndCows.GuessStatus",
          "name": "status",
          "type": "uint8"
        },
        {
          "internalType": "uint256",
          "name": "time",
          "type": "uint256"
        }
      ],
      "payable": false,
      "stateMutability": "view",
      "type": "function"
    },
    {
      "constant": false,
      "inputs": [
        {
          "internalType": "uint256",
          "name": "value",
          "type": "uint256"
        },
        {
          "internalType": "uint256",
          "name": "digitsNumber",
          "type": "uint256"
        },
        {
          "internalType": "uint256",
          "name": "guessNumber",
          "type": "uint256"
        },
        {
          "internalType": "uint256",
          "name": "hash",
          "type": "uint256"
        }
      ],
      "name": "newGame",
      "outputs": [
        {
          "internalType": "uint256",
          "name": "",
          "type": "uint256"
        }
      ],
      "payable": true,
      "stateMutability": "payable",
      "type": "function"
    },
    {
      "constant": false,
      "inputs": [
        {
          "internalType": "uint256",
          "name": "gameId",
          "type": "uint256"
        }
      ],
      "name": "deleteGame",
      "outputs": [],
      "payable": false,
      "stateMutability": "nonpayable",
      "type": "function"
    },
    {
      "constant": false,
      "inputs": [
        {
          "internalType": "uint256",
          "name": "gameId",
          "type": "uint256"
        }
      ],
      "name": "startGame",
      "outputs": [],
      "payable": true,
      "stateMutability": "payable",
      "type": "function"
    },
    {
      "constant": false,
      "inputs": [
        {
          "internalType": "uint256",
          "name": "gameId",
          "type": "uint256"
        },
        {
          "internalType": "uint256[]",
          "name": "digits",
          "type": "uint256[]"
        }
      ],
      "name": "newGuess",
      "outputs": [],
      "payable": false,
      "stateMutability": "nonpayable",
      "type": "function"
    },
    {
      "constant": false,
      "inputs": [
        {
          "internalType": "uint256",
          "name": "gameId",
          "type": "uint256"
        },
        {
          "internalType": "uint256",
          "name": "guessId",
          "type": "uint256"
        },
        {
          "internalType": "uint256",
          "name": "bulls",
          "type": "uint256"
        },
        {
          "internalType": "uint256",
          "name": "cows",
          "type": "uint256"
        },
        {
          "components": [
            {
              "internalType": "uint256[2]",
              "name": "pi_a",
              "type": "uint256[2]"
            },
            {
              "internalType": "uint256[2][2]",
              "name": "pi_b",
              "type": "uint256[2][2]"
            },
            {
              "internalType": "uint256[2]",
              "name": "pi_c",
              "type": "uint256[2]"
            }
          ],
          "internalType": "struct IBullsAndCows.Proof",
          "name": "proof",
          "type": "tuple"
        }
      ],
      "name": "guessResult",
      "outputs": [],
      "payable": false,
      "stateMutability": "nonpayable",
      "type": "function"
    },
    {
      "constant": false,
      "inputs": [
        {
          "internalType": "uint256",
          "name": "gameId",
          "type": "uint256"
        },
        {
          "internalType": "uint256",
          "name": "guessId",
          "type": "uint256"
        }
      ],
      "name": "chalengeResult",
      "outputs": [],
      "payable": false,
      "stateMutability": "nonpayable",
      "type": "function"
    },
    {
      "constant": false,
      "inputs": [
        {
          "internalType": "uint256",
          "name": "gameId",
          "type": "uint256"
        }
      ],
      "name": "forceStopGame",
      "outputs": [],
      "payable": false,
      "stateMutability": "nonpayable",
      "type": "function"
    },
    {
      "constant": false,
      "inputs": [
        {
          "internalType": "uint256",
          "name": "gameId",
          "type": "uint256"
        }
      ],
      "name": "finalizeGame",
      "outputs": [],
      "payable": false,
      "stateMutability": "nonpayable",
      "type": "function"
    },
    {
      "constant": true,
      "inputs": [],
      "name": "getGamesCount",
      "outputs": [
        {
          "internalType": "uint256",
          "name": "",
          "type": "uint256"
        }
      ],
      "payable": false,
      "stateMutability": "view",
      "type": "function"
    }
  ],
  "bytecode": "0x60806040526201fa4060025534801561001757600080fd5b506129dc806100276000396000f3fe60806040526004361061009c5760003560e01c80634bb86180116100645780634bb8618014610163578063771197ee14610183578063a813895b146101a3578063c08989f2146101b6578063e5ed1d59146101e7578063ea5cf7e8146101fa5761009c565b80630920a238146100a1578063117a5b90146100c357806317b7a47614610101578063248a55a11461012357806341f7347314610143575b600080fd5b3480156100ad57600080fd5b506100c16100bc3660046120de565b61021a565b005b3480156100cf57600080fd5b506100e36100de36600461206a565b610619565b6040516100f8999897969594939291906126ac565b60405180910390f35b34801561010d57600080fd5b50610116610684565b6040516100f89190612832565b34801561012f57600080fd5b506100c161013e36600461206a565b61068b565b34801561014f57600080fd5b506100c161015e366004612179565b61080a565b34801561016f57600080fd5b506100c161017e36600461206a565b610a63565b34801561018f57600080fd5b506100c161019e36600461206a565b610f3a565b6101166101b1366004612118565b61135b565b3480156101c257600080fd5b506101d66101d13660046120de565b6115a0565b6040516100f8959493929190612840565b6100c16101f536600461206a565b6116ca565b34801561020657600080fd5b506100c1610215366004612088565b61189e565b60005482106102445760405162461bcd60e51b815260040161023b906127c2565b60405180910390fd5b61024c611c35565b6000838154811061025957fe5b60009182526020918290206040805161012081018252600990930290910180546001600160a01b03908116845260018201541693830193909352600280840154918301919091526003830154606083015260048301546080830152600583015460a0830152600683015460c0830152600783015491929160e084019160ff909116908111156102e457fe5b60028111156102ef57fe5b815260089190910154602090910152905060018160e00151600281111561031257fe5b1461032f5760405162461bcd60e51b815260040161023b90612782565b600083815260016020526040902054821061035c5760405162461bcd60e51b815260040161023b906127a2565b600083815260016020526040812080548490811061037657fe5b60009182526020909120600d9091020190506001600b82015460ff16600181111561039d57fe5b146103ba5760405162461bcd60e51b815260040161023b90612812565b6103c2611c9e565b60405180610160016040528083600101548152602001836002015481526020018460c001518152602001836000016000815481106103fc57fe5b906000526020600020015481526020018360000160018154811061041c57fe5b906000526020600020015481526020018360000160028154811061043c57fe5b906000526020600020015481526020018360000160038154811061045c57fe5b906000526020600020015481526020018360000160048154811061047c57fe5b906000526020600020015481526020018360000160058154811061049c57fe5b90600052602060002001548152602001836000016006815481106104bc57fe5b90600052602060002001548152602001836000016007815481106104dc57fe5b600091825260208220015490915260405163b9c6ea8760e01b81529192509073__Verifier______________________________9063b9c6ea8790610534906003870190600588019060098901908890600401612732565b60206040518083038186803b15801561054c57600080fd5b505af4158015610560573d6000803e3d6000fd5b505050506040513d601f19601f820116820180604052506105849190810190612025565b90506001811515146106115760026000878154811061059f57fe5b60009182526020909120600760099092020101805460ff191660018360028111156105c657fe5b021790555083602001516001600160a01b03166108fc85604001516002029081150290604051600060405180830381858888f1935050505015801561060f573d6000803e3d6000fd5b505b505050505050565b6000818154811061062657fe5b60009182526020909120600990910201805460018201546002830154600384015460048501546005860154600687015460078801546008909801546001600160a01b0397881699509690951696939592949193909260ff9091169089565b6000545b90565b60005481106106ac5760405162461bcd60e51b815260040161023b906127c2565b6106b4611c35565b600082815481106106c157fe5b60009182526020918290206040805161012081018252600990930290910180546001600160a01b03908116845260018201541693830193909352600280840154918301919091526003830154606083015260048301546080830152600583015460a0830152600683015460c0830152600783015491929160e084019160ff9091169081111561074c57fe5b600281111561075757fe5b8152602001600882015481525050905080600001516001600160a01b0316336001600160a01b03161461079c5760405162461bcd60e51b815260040161023b906127f2565b60008160e0015160028111156107ae57fe5b146107cb5760405162461bcd60e51b815260040161023b90612782565b6002600083815481106107da57fe5b60009182526020909120600760099092020101805460ff1916600183600281111561080157fe5b02179055505050565b600054851061082b5760405162461bcd60e51b815260040161023b906127c2565b610833611c35565b6000868154811061084057fe5b60009182526020918290206040805161012081018252600990930290910180546001600160a01b03908116845260018201541693830193909352600280840154918301919091526003830154606083015260048301546080830152600583015460a0830152600683015460c0830152600783015491929160e084019160ff909116908111156108cb57fe5b60028111156108d657fe5b81526008919091015460209182015260008881526001909152604090205490915085106109155760405162461bcd60e51b815260040161023b906127a2565b600086815260016020526040812080548790811061092f57fe5b90600052602060002090600d0201905081600001516001600160a01b0316336001600160a01b0316146109745760405162461bcd60e51b815260040161023b90612822565b60018260e00151600281111561098657fe5b146109a35760405162461bcd60e51b815260040161023b90612782565b6000600b82015460ff1660018111156109b857fe5b146109d55760405162461bcd60e51b815260040161023b90612812565b6109dd611cbd565b6109ec3685900385018561204b565b805190915081906003840190610a059082906002611cef565b506020820151610a1b9060028084019190611d2d565b506040820151610a319060068301906002611cef565b5050505060018181019590955560028101939093555050600b8101805460ff191690921790915542600c909101555050565b6000548110610a845760405162461bcd60e51b815260040161023b906127c2565b610a8c611c35565b60008281548110610a9957fe5b60009182526020918290206040805161012081018252600990930290910180546001600160a01b03908116845260018201541693830193909352600280840154918301919091526003830154606083015260048301546080830152600583015460a0830152600683015460c0830152600783015491929160e084019160ff90911690811115610b2457fe5b6002811115610b2f57fe5b815260089190910154602090910152905060018160e001516002811115610b5257fe5b14610b6f5760405162461bcd60e51b815260040161023b90612782565b608081015115610ea457610b81611d74565b600083815260016020526040902060808301518154600019909101908110610ba557fe5b90600052602060002090600d02016040518060c001604052908160008201805480602002602001604051908101604052809291908181526020018280548015610c0d57602002820191906000526020600020905b815481526020019060010190808311610bf9575b505050918352505060018201546020820152600280830154604080840191909152805160a0810191829052606093840193909260038601928492830191849182845b815481526020019060010190808311610c4f575050505050815260200160028201600280602002604051908101604052809291906000905b82821015610ccd57604080518082019182905290600284810287019182845b815481526020019060010190808311610ca657505050505081526020019060010190610c87565b50505090825250604080518082019182905260209092019190600684019060029082845b815481526020019060010190808311610cf157505050919092525050508152600b82015460209091019060ff166001811115610d2957fe5b6001811115610d3457fe5b8152602001600c8201548152505090506002548160a0015101421115610e9e57600081608001516001811115610d6657fe5b1415610df157600260008481548110610d7b57fe5b60009182526020909120600760099092020101805460ff19166001836002811115610da257fe5b021790555081602001516001600160a01b03166108fc83604001516002029081150290604051600060405180830381858888f19350505050158015610deb573d6000803e3d6000fd5b50610e9e565b600181608001516001811115610e0357fe5b148015610e1857508160600151826080015114155b15610e9e57600260008481548110610e2c57fe5b60009182526020909120600760099092020101805460ff19166001836002811115610e5357fe5b021790555081600001516001600160a01b03166108fc83604001516002029081150290604051600060405180830381858888f19350505050158015610e9c573d6000803e3d6000fd5b505b50610f36565b60025481610100015101421115610f3657600260008381548110610ec457fe5b60009182526020909120600760099092020101805460ff19166001836002811115610eeb57fe5b021790555080600001516001600160a01b03166108fc82604001516002029081150290604051600060405180830381858888f19350505050158015610f34573d6000803e3d6000fd5b505b5050565b6000548110610f5b5760405162461bcd60e51b815260040161023b906127c2565b610f63611c35565b60008281548110610f7057fe5b60009182526020918290206040805161012081018252600990930290910180546001600160a01b03908116845260018201541693830193909352600280840154918301919091526003830154606083015260048301546080830152600583015460a0830152600683015460c0830152600783015491929160e084019160ff90911690811115610ffb57fe5b600281111561100657fe5b815260089190910154602090910152905060018160e00151600281111561102957fe5b146110465760405162461bcd60e51b815260040161023b90612782565b806060015181608001511461106d5760405162461bcd60e51b815260040161023b906127d2565b611075611d74565b60008381526001602052604090206060830151815460001990910190811061109957fe5b90600052602060002090600d02016040518060c00160405290816000820180548060200260200160405190810160405280929190818152602001828054801561110157602002820191906000526020600020905b8154815260200190600101908083116110ed575b505050918352505060018201546020820152600280830154604080840191909152805160a0810191829052606093840193909260038601928492830191849182845b815481526020019060010190808311611143575050505050815260200160028201600280602002604051908101604052809291906000905b828210156111c157604080518082019182905290600284810287019182845b81548152602001906001019080831161119a5750505050508152602001906001019061117b565b50505090825250604080518082019182905260209092019190600684019060029082845b8154815260200190600101908083116111e557505050919092525050508152600b82015460209091019060ff16600181111561121d57fe5b600181111561122857fe5b8152600c9190910154602090910152905060018160800151600181111561124b57fe5b146112685760405162461bcd60e51b815260040161023b90612772565b6002548160a0015101421161127c57600080fd5b60026000848154811061128b57fe5b60009182526020909120600760099092020101805460ff191660018360028111156112b257fe5b02179055508160a00151816020015114156113115781602001516001600160a01b03166108fc83604001516002029081150290604051600060405180830381858888f1935050505015801561130b573d6000803e3d6000fd5b50610f34565b81600001516001600160a01b03166108fc83604001516002029081150290604051600060405180830381858888f19350505050158015611355573d6000803e3d6000fd5b50505050565b600084341461137c5760405162461bcd60e51b815260040161023b906127b2565b611384611c35565b604051806101200160405280336001600160a01b0316815260200160006001600160a01b0316815260200187815260200185815260200160008152602001868152602001848152602001600060028111156113db57fe5b81526000602091820181905280546001818101808455928052845160099092027f290decd9548b62a8d60345a988386fc84ba6bc95484008f6362f93160ef3e563810180546001600160a01b039485166001600160a01b0319918216178255958701517f290decd9548b62a8d60345a988386fc84ba6bc95484008f6362f93160ef3e564830180549190951696169590951790925560408501517f290decd9548b62a8d60345a988386fc84ba6bc95484008f6362f93160ef3e56583015560608501517f290decd9548b62a8d60345a988386fc84ba6bc95484008f6362f93160ef3e56683015560808501517f290decd9548b62a8d60345a988386fc84ba6bc95484008f6362f93160ef3e56783015560a08501517f290decd9548b62a8d60345a988386fc84ba6bc95484008f6362f93160ef3e56883015560c08501517f290decd9548b62a8d60345a988386fc84ba6bc95484008f6362f93160ef3e56983015560e08501517f290decd9548b62a8d60345a988386fc84ba6bc95484008f6362f93160ef3e56a909201805495965092948694939160ff199091169083600281111561158457fe5b0217905550610100820151816008015550505050949350505050565b600160205281600052604060002081815481106115b957fe5b60009182526020909120600d9091020160018101546002808301546040805160a0810191829052939650909450600384019183916060830191849182845b8154815260200190600101908083116115f7575050505050815260200160028201600280602002604051908101604052809291906000905b8282101561167557604080518082019182905290600284810287019182845b81548152602001906001019080831161164e5750505050508152602001906001019061162f565b50505090825250604080518082019182905260209092019190600684019060029082845b8154815260200190600101908083116116995750505091909252505050600b820154600c90920154909160ff169085565b60005481106116eb5760405162461bcd60e51b815260040161023b906127c2565b6116f3611c35565b6000828154811061170057fe5b60009182526020918290206040805161012081018252600990930290910180546001600160a01b03908116845260018201541693830193909352600280840154918301919091526003830154606083015260048301546080830152600583015460a0830152600683015460c0830152600783015491929160e084019160ff9091169081111561178b57fe5b600281111561179657fe5b815260089190910154602090910152905060008160e0015160028111156117b957fe5b146117d65760405162461bcd60e51b815260040161023b90612782565b806040015134146117f95760405162461bcd60e51b815260040161023b906127b2565b336000838154811061180757fe5b906000526020600020906009020160010160006101000a8154816001600160a01b0302191690836001600160a01b0316021790555060016000838154811061184b57fe5b60009182526020909120600760099092020101805460ff1916600183600281111561187257fe5b0217905550426000838154811061188557fe5b9060005260206000209060090201600801819055505050565b60005483106118bf5760405162461bcd60e51b815260040161023b906127c2565b6118c7611c35565b600084815481106118d457fe5b60009182526020918290206040805161012081018252600990930290910180546001600160a01b03908116845260018201541693830193909352600280840154918301919091526003830154606083015260048301546080830152600583015460a0830152600683015460c0830152600783015491929160e084019160ff9091169081111561195f57fe5b600281111561196a57fe5b815260089190910154602090910152905060018160e00151600281111561198d57fe5b146119aa5760405162461bcd60e51b815260040161023b90612782565b80602001516001600160a01b0316336001600160a01b0316146119df5760405162461bcd60e51b815260040161023b906127e2565b8060600151816080015110611a065760405162461bcd60e51b815260040161023b906127e2565b60a08101518214611a295760405162461bcd60e51b815260040161023b90612802565b60005b82811015611a6f57610100848483818110611a4357fe5b9050602002013510611a675760405162461bcd60e51b815260040161023b90612792565b600101611a2c565b50611a78611d74565b6040518060c00160405280858580806020026020016040519081016040528093929190818152602001838360200280828437600092018290525093855250505060208083018290526040808401839052805160a08082018352606080830186815260808085018890529084528451808201865280860188815281840189905281528551808701875288815280880189905281880152848701528451808601865287815280870188905284860152908701929092529085018490524294019390935288825260018082529282208054938401808255908352918190208451805195965092948694600d0290910192611b73928492910190611da8565b506020820151816001015560408201518160020155606082015181600301600082015181600001906002611ba8929190611cef565b506020820151611bbe9060028084019190611d2d565b506040820151611bd49060068301906002611cef565b5050506080820151600b8201805460ff191660018381811115611bf357fe5b021790555060a082015181600c0155505050600160008681548110611c1457fe5b60009182526020909120600460099092020101805490910190555050505050565b60405180610120016040528060006001600160a01b0316815260200160006001600160a01b03168152602001600081526020016000815260200160008152602001600081526020016000815260200160006002811115611c9157fe5b8152602001600081525090565b604051806101600160405280600b906020820280388339509192915050565b6040518060600160405280611cd0611de2565b8152602001611cdd611e00565b8152602001611cea611de2565b905290565b8260028101928215611d1d579160200282015b82811115611d1d578251825591602001919060010190611d02565b50611d29929150611e2d565b5090565b600483019183908215611d68579160200282015b82811115611d68578251611d589083906002611cef565b5091602001919060020190611d41565b50611d29929150611e47565b6040518060c00160405280606081526020016000815260200160008152602001611d9c611cbd565b81526020016000611c91565b828054828255906000526020600020908101928215611d1d5791602002820182811115611d1d578251825591602001919060010190611d02565b60405180604001604052806002906020820280388339509192915050565b60405180604001604052806002905b611e17611de2565b815260200190600190039081611e0f5790505090565b61068891905b80821115611d295760008155600101611e33565b61068891905b80821115611d29576000611e618282611e6a565b50600201611e4d565b506000815560010160009055565b600082601f830112611e8957600080fd5b6002611e9c611e97826128b6565b61288f565b91508183856040840282011115611eb257600080fd5b60005b83811015611ee05781611ec88882611eea565b84525060209092019160409190910190600101611eb5565b5050505092915050565b600082601f830112611efb57600080fd5b6002611f09611e97826128b6565b91508183856020840282011115611f1f57600080fd5b60005b83811015611ee05781611f35888261201a565b8452506020928301929190910190600101611f22565b60008083601f840112611f5d57600080fd5b50813567ffffffffffffffff811115611f7557600080fd5b602083019150836020820283011115611f8d57600080fd5b9250929050565b8051611f9f8161297c565b92915050565b60006101008284031215611fb857600080fd5b50919050565b60006101008284031215611fd157600080fd5b611fdb606061288f565b90506000611fe98484611eea565b8252506040611ffa84848301611e78565b60208301525060c061200e84828501611eea565b60408301525092915050565b8035611f9f81612990565b60006020828403121561203757600080fd5b60006120438484611f94565b949350505050565b6000610100828403121561205e57600080fd5b60006120438484611fbe565b60006020828403121561207c57600080fd5b6000612043848461201a565b60008060006040848603121561209d57600080fd5b60006120a9868661201a565b935050602084013567ffffffffffffffff8111156120c657600080fd5b6120d286828701611f4b565b92509250509250925092565b600080604083850312156120f157600080fd5b60006120fd858561201a565b925050602061210e8582860161201a565b9150509250929050565b6000806000806080858703121561212e57600080fd5b600061213a878761201a565b945050602061214b8782880161201a565b935050604061215c8782880161201a565b925050606061216d8782880161201a565b91505092959194509250565b6000806000806000610180868803121561219257600080fd5b600061219e888861201a565b95505060206121af8882890161201a565b94505060406121c08882890161201a565b93505060606121d18882890161201a565b92505060806121e288828901611fa5565b9150509295509295909350565b60006121fb8383612315565b505060400190565b60006121fb83836123b4565b600061221b83836126a3565b505060200190565b61222c81612900565b82525050565b61223b816128d4565b61224581846128f2565b925061225082610688565b8060005b8381101561061157815161226887826121ef565b9650612273836128e0565b925050600101612254565b612287816128d4565b61229181846128f2565b925061229c82610688565b8060005b8381101561061157816122b38782612203565b96506122be836128e6565b9250506001016122a0565b6122d2816128da565b6122dc81846128f2565b92506122e782610688565b8060005b838110156106115781516122ff878261220f565b965061230a836128e0565b9250506001016122eb565b61231e816128d4565b61232881846128f2565b925061233382610688565b8060005b8381101561061157815161234b878261220f565b9650612356836128e0565b925050600101612337565b61236a816128d4565b61237481846128f2565b925061237f82610688565b8060005b838110156106115761239482612959565b61239e878261220f565b96506123a9836128ec565b925050600101612383565b6123bd816128d4565b6123c781846128f2565b92506123d282610688565b8060005b83811015610611576123e782612959565b6123f1878261220f565b96506123fc836128ec565b9250506001016123d6565b61222c81612930565b61222c8161293b565b6000612426601c836128f7565b7f494e434f52524543542046494e414c2047554553532053544154555300000000815260200192915050565b600061245f6015836128f7565b74494e434f52524543542047414d452053544154555360581b815260200192915050565b6000612490601c836128f7565b7f494e434f52524543542044494749542056414c554520283e3235352900000000815260200192915050565b60006124c96012836128f7565b71125390d3d4949150d50811d55154d4c8125160721b815260200192915050565b60006124f7600f836128f7565b6e494e434f52524543542056414c554560881b815260200192915050565b60006125226011836128f7565b70125390d3d4949150d50811d05351481251607a1b815260200192915050565b600061254f6017836128f7565b7f494e434f525245435420475545535320434f554e544552000000000000000000815260200192915050565b60006125886010836128f7565b6f24a721a7a92922a1aa10282620aca2a960811b815260200192915050565b60006125b46013836128f7565b72125390d3d4949150d50811d05351481213d4d5606a1b815260200192915050565b60006125e36017836128f7565b7f494e434f525245435420444947495453204e554d424552000000000000000000815260200192915050565b600061261c6016836128f7565b75494e434f52524543542047554553532053544154555360501b815260200192915050565b600061264e600e836128f7565b6d125390d3d4949150d5081213d4d560921b815260200192915050565b805161010083019061267d8482612315565b5060208201516126906040850182612232565b50604082015161135560c0850182612315565b61222c81610688565b61012081016126bb828c612223565b6126c8602083018b612223565b6126d5604083018a6126a3565b6126e260608301896126a3565b6126ef60808301886126a3565b6126fc60a08301876126a3565b61270960c08301866126a3565b61271660e0830185612407565b6127246101008301846126a3565b9a9950505050505050505050565b61026081016127418287612361565b61274e604083018661227e565b61275b60c0830185612361565b6127696101008301846122c9565b95945050505050565b60208082528101611f9f81612419565b60208082528101611f9f81612452565b60208082528101611f9f81612483565b60208082528101611f9f816124bc565b60208082528101611f9f816124ea565b60208082528101611f9f81612515565b60208082528101611f9f81612542565b60208082528101611f9f8161257b565b60208082528101611f9f816125a7565b60208082528101611f9f816125d6565b60208082528101611f9f8161260f565b60208082528101611f9f81612641565b60208101611f9f82846126a3565b610180810161284f82886126a3565b61285c60208301876126a3565b612869604083018661266b565b612877610140830185612410565b6128856101608301846126a3565b9695505050505050565b60405181810167ffffffffffffffff811182821017156128ae57600080fd5b604052919050565b600067ffffffffffffffff8211156128cd57600080fd5b5060200290565b50600290565b50600b90565b60200190565b60020190565b60010190565b919050565b90815260200190565b6000611f9f82612924565b151590565b806128f281612965565b806128f281612972565b6001600160a01b031690565b6000611f9f82612910565b6000611f9f8261291a565b6000611f9f61295483610688565b610688565b6000611f9f8254612946565b6003811061296f57fe5b50565b6002811061296f57fe5b6129858161290b565b811461296f57600080fd5b6129858161068856fea365627a7a72315820c16318ca690808fa03fcf2072c0357c136be22bea50134092f0168f7f78e9ed16c6578706572696d656e74616cf564736f6c634300050b0040",
  "source": "pragma solidity 0.5.11;\npragma experimental ABIEncoderV2;\n\nimport \"./verifier.sol\";\n\n\ncontract IBullsAndCows {\n    struct Proof {\n        uint[2]  pi_a;\n        uint[2][2]  pi_b;\n        uint[2]  pi_c;\n    }\n\n    function newGame(uint value, uint digitsNumber, uint guessNumber, uint hash) external payable returns (uint);\n    function deleteGame(uint gameId) external;\n    function startGame(uint gameId) external payable;\n    function newGuess(uint gameId, uint[] calldata digits) external;\n    function guessResult(uint gameId, uint guessId, uint bulls, uint cows, Proof calldata proof) external;\n    function chalengeResult(uint gameId, uint guessId) external;\n    function forceStopGame(uint gameId) external;\n    function finalizeGame(uint gameId) external;\n    function getGamesCount() external view returns(uint);\n}\n\ncontract BullsAndCows is IBullsAndCows {\n\n    enum GameStatus {\n        CREATED,\n        STARTED,\n        FINISHED\n    }\n\n    struct Game {\n        address payable host;\n        address payable player;\n        uint value;\n        uint guessNumber;\n        uint guessCounter;\n        uint digitsNumber;\n        uint hash;\n        GameStatus status;\n        uint startTime;\n    }\n\n    enum GuessStatus {\n        CREATED,\n        RESPONDED\n    }\n\n    struct Guess {\n        uint[] digits;\n        uint bulls;\n        uint cows;\n        Proof proof;\n        GuessStatus status;\n        uint time;\n    }\n\n    Game[] public games;\n    mapping(uint => Guess[]) public guesses;\n\n    uint chalengePeriod = 1.5 days;\n\n\n    function newGame(\n        uint value,\n        uint digitsNumber,\n        uint guessNumber,\n        uint hash\n    ) external payable returns (uint) {\n        require(msg.value == value, \"INCORRECT VALUE\");\n        // TODO check digitsNumber consistency [4,5,6]\n        // TODO real word proof and chalenge function\n        Game memory game = Game(\n            msg.sender,\n            address(0),\n            value,\n            guessNumber,\n            0,\n            digitsNumber,\n            hash,\n            GameStatus.CREATED,\n            0\n        );\n        games.push(game);\n    }\n\n    function deleteGame(uint gameId) external {\n        require(gameId < games.length, \"INCORRECT GAME ID\");\n        Game memory game = games[gameId];\n        require(msg.sender == game.host, \"INCORRECT GAME HOST\");\n        require(game.status == GameStatus.CREATED, \"INCORRECT GAME STATUS\");\n        games[gameId].status = GameStatus.FINISHED;\n    }\n\n    function startGame(uint gameId) external payable {\n        require(gameId < games.length, \"INCORRECT GAME ID\");\n        Game memory game = games[gameId];\n        require(game.status == GameStatus.CREATED, \"INCORRECT GAME STATUS\");\n        require(msg.value == game.value, \"INCORRECT VALUE\");\n        games[gameId].player = msg.sender;\n        games[gameId].status = GameStatus.STARTED;\n        games[gameId].startTime = now;\n    }\n\n    function newGuess(uint gameId, uint[] calldata digits) external {\n        require(gameId < games.length, \"INCORRECT GAME ID\");\n        Game memory game = games[gameId];\n        require(game.status == GameStatus.STARTED, \"INCORRECT GAME STATUS\");\n        require(msg.sender == game.player, \"INCORRECT PLAYER\");\n        require(game.guessCounter < game.guessNumber, \"INCORRECT PLAYER\");\n        require(digits.length == game.digitsNumber, \"INCORRECT DIGITS NUMBER\");\n        for (uint i = 0; i<digits.length; i++) {\n            require(digits[i] < 256, \"INCORRECT DIGIT VALUE (>255)\");\n        }\n\n        Guess memory guess = Guess(\n            digits,\n            0,\n            0,\n            Proof([uint(0),0],[[uint(0),0],[uint(0),0]],[uint(0),0]),\n            GuessStatus.CREATED,\n            now\n        );\n        guesses[gameId].push(guess);\n        games[gameId].guessCounter += 1;\n    }\n\n    function guessResult(\n        uint gameId,\n        uint guessId,\n        uint bulls,\n        uint cows,\n        Proof calldata proof\n    ) external {\n        require(gameId < games.length, \"INCORRECT GAME ID\");\n        Game memory game = games[gameId];\n        require(guessId < guesses[gameId].length, \"INCORRECT GUESS ID\");\n        Guess storage guess = guesses[gameId][guessId];\n        require(msg.sender == game.host, \"INCORRECT HOST\");\n        require(game.status == GameStatus.STARTED, \"INCORRECT GAME STATUS\");\n        require(guess.status == GuessStatus.CREATED, \"INCORRECT GUESS STATUS\");\n        \n        Proof memory _proof = proof; // for 5.11 compilation\n        guess.proof = _proof;\n        guess.bulls = bulls;\n        guess.cows = cows;\n        guess.status = GuessStatus.RESPONDED;\n        guess.time = now;\n    }\n\n    function chalengeResult(uint gameId, uint guessId) external {\n        require(gameId < games.length, \"INCORRECT GAME ID\");\n        Game memory game = games[gameId];\n        require(game.status == GameStatus.STARTED, \"INCORRECT GAME STATUS\");\n        require(guessId < guesses[gameId].length, \"INCORRECT GUESS ID\");\n        Guess storage guess = guesses[gameId][guessId];\n        require(guess.status == GuessStatus.RESPONDED, \"INCORRECT GUESS STATUS\");\n\n        uint[11] memory publicInputs = [\n            guess.bulls,\n            guess.cows,\n            game.hash,\n            guess.digits[0],\n            guess.digits[1],\n            guess.digits[2],\n            guess.digits[3],\n            guess.digits[4],\n            guess.digits[5],\n            guess.digits[6],\n            guess.digits[7]\n        ];\n        bool result = Verifier.verifyProof(\n            guess.proof.pi_a,\n            guess.proof.pi_b,\n            guess.proof.pi_c,\n            publicInputs\n        );\n        if (result != true) {\n            // player won\n            games[gameId].status = GameStatus.FINISHED;\n            game.player.transfer(2*game.value);\n        }\n    }\n\n    function forceStopGame(uint gameId) external {\n        require(gameId < games.length, \"INCORRECT GAME ID\");\n        Game memory game = games[gameId];\n        require(game.status == GameStatus.STARTED, \"INCORRECT GAME STATUS\");\n\n        if (game.guessCounter > 0) {\n            Guess memory guess = guesses[gameId][game.guessCounter-1];\n            if (now > guess.time + chalengePeriod) {\n                if (guess.status == GuessStatus.CREATED) {\n                    // player won\n                    games[gameId].status = GameStatus.FINISHED;\n                    game.player.transfer(2*game.value);\n                } else if (guess.status == GuessStatus.RESPONDED && game.guessCounter != game.guessNumber) {\n                    // host won\n                    games[gameId].status = GameStatus.FINISHED;\n                    game.host.transfer(2*game.value);\n                }\n            }\n        } else {\n            if (now > game.startTime + chalengePeriod) {\n                // host won\n                games[gameId].status = GameStatus.FINISHED;\n                game.host.transfer(2*game.value);\n            }\n        }\n    }\n\n    function finalizeGame(uint gameId) external {\n        require(gameId < games.length, \"INCORRECT GAME ID\");\n        Game memory game = games[gameId];\n        require(game.status == GameStatus.STARTED, \"INCORRECT GAME STATUS\");\n        require(game.guessCounter == game.guessNumber, \"INCORRECT GUESS COUNTER\");\n\n        Guess memory guess = guesses[gameId][game.guessNumber-1];\n        require(guess.status == GuessStatus.RESPONDED, \"INCORRECT FINAL GUESS STATUS\");\n        require(now > guess.time + chalengePeriod);\n\n        games[gameId].status = GameStatus.FINISHED;\n        if (guess.bulls == game.digitsNumber) {\n            // player won\n            game.player.transfer(2*game.value);\n        } else {\n            // host won\n            game.host.transfer(2*game.value);\n        }\n    }\n\n    function getGamesCount() external view returns(uint) {\n        return games.length;\n    }\n}",
  "sourcePath": "/Users/drygin/develop/Bulls-and-Cows/truffle/contracts/bullsAndCows.sol",
  "compiler": {
    "name": "solc",
    "version": "0.5.11+commit.c082d0b4.Emscripten.clang"
  },
  "schemaVersion": "3.0.23",
  "updatedAt": "2020-07-17T12:10:01.270Z",
  "devdoc": {
    "methods": {}
  },
  "userdoc": {
    "methods": {}
  }
}